:100000000C9463000C948B000C948B000C94D00324
:100010000C94D0030C94D0030C948B000C948B00A4
:100020000C948B000C948B000C948B000C948B0024
:100030000C948B000C948B000C948B000C948B0014
:100040000C942E030C948B000C949E030C94780358
:100050000C948B000C948B000C948B000C948B00F4
:100060000C948B000C948B000000000024002700EF
:100070002A0000000008000201000003040700003D
:1000800000000000000000000000230026002900FE
:1000900000000000250028002B00040404040404D0
:1000A0000404020202020202030303030303010227
:1000B00004081020408001020408102001020408F6
:1000C000102048049E0611241FBECFEFD8E0DEBFEB
:1000D000CDBF22E0A4E3B1E001C01D92A134B2077C
:1000E000E1F711E0A0E0B1E0EEEFF1E102C0059030
:1000F0000D92A433B107D9F710E0C2E6D0E004C0F6
:100100002197FE010E94F106C136D107C9F70E946E
:10011000F3040C94F2080C940000AF92BF92CF92BB
:10012000DF92EF92FF920F931F93CF93DF936C01B7
:100130007B018B01040F151FEB015E01AE18BF0898
:10014000C017D10759F06991D601ED91FC9101904A
:10015000F081E02DC6010995892B79F7C501DF9162
:10016000CF911F910F91FF90EF90DF90CF90BF90B4
:10017000AF900895FC01538D448D252F30E0842FDE
:1001800090E0821B930B541710F0CF9608950197BF
:100190000895FC01918D828D981761F0A28DAE0FAC
:1001A000BF2FB11D5D968C91928D9F5F9F73928F33
:1001B00090E008958FEF9FEF0895FC01918D828D5F
:1001C000981731F0828DE80FF11D858D90E008952C
:1001D0008FEF9FEF0895FC01918D228D892F90E084
:1001E000805C9F4F821B91098F739927089581E846
:1001F00091E00E94EB0021E0892B09F420E0822F9E
:10020000089580E090E0892B29F00E94F700811189
:100210000C9400000895FC01A48DA80FB92FB11D06
:10022000A35ABF4F2C91848D90E001968F7399272C
:10023000848FA689B7892C93A089B1898C9183700A
:1002400080648C93938D848D981306C00288F38903
:10025000E02D80818F7D80830895EF92FF920F9330
:100260001F93CF93DF93EC0181E0888F9B8D8C8D62
:1002700098131AC0E889F989808185FF15C09FB756
:10028000F894EE89FF896083E889F9898081837019
:10029000806480839FBF81E090E0DF91CF911F91C8
:1002A0000F91FF90EF900895F62E0B8D10E00F5FE9
:1002B0001F4F0F731127E02E8C8D8E110CC00FB6BF
:1002C00007FCFACFE889F989808185FFF5CFCE0157
:1002D0000E940B01F1CFEB8DEC0FFD2FF11DE35AC6
:1002E000FF4FF0829FB7F8940B8FEA89FB898081DA
:1002F0008062CFCFCF93DF93EC01888D8823B9F054
:10030000AA89BB89E889F9898C9185FD03C0808120
:1003100086FD0DC00FB607FCF7CF8C9185FFF2CF9D
:10032000808185FFEDCFCE010E940B01E9CFDF91E7
:10033000CF91089590E0FC01EE58FF4F2491FC010D
:10034000E255FF4F3491FC01E656FF4FE491EE2356
:10035000C9F0222339F0233001F1A8F4213019F13A
:10036000223029F1F0E0EE0FFF1FE057FF4FA5917B
:10037000B4918FB7F894EC91611126C030953E236B
:100380003C938FBF08952730A9F02830C9F024305E
:1003900049F7809180008F7D03C0809180008F7726
:1003A00080938000DFCF84B58F7784BDDBCF84B5A9
:1003B0008F7DFBCF8091B0008F778093B000D2CF3C
:1003C0008091B0008F7DF9CF3E2BDACFCF93DF93B2
:1003D00090E0FC01E255FF4F249186569F4FFC01AF
:1003E00084918823D1F090E0880F991FFC01E8598F
:1003F000FF4FA591B491FC01E057FF4FC591D491F7
:1004000061110EC09FB7F8948C91E22FE0958E2376
:100410008C932881E223E8839FBFDF91CF910895D9
:100420008FB7F894EC91E22BEC938FBFF6CF20912D
:100430007601309177012817390771F49091740192
:1004400080917501981741F0E0917401F0E0EC5C47
:10045000FE4F808190E008958FEF9FEF08950895FB
:10046000EF92FF920F931F93CF93DF93DC015C9683
:10047000ED90FC905D97E114F10479F481E090E057
:1004800013969C938E93129790E080E0DF91CF912A
:100490001F910F91FF90EF9008955196ED91FC916F
:1004A000529750968C915097982F90950FB75E96D3
:1004B0002C915E97122F127021FD6095F894208187
:1004C000112319F1282B2083E7012197F1F728E068
:1004D000462F50E0308160FF1AC0382B3083E7018F
:1004E0002197F1F7BA0175956795215089F7112386
:1004F00081F08081892380830FBF5C968D919C91D0
:100500000197F1F781E090E0C1CF2923DCCF3923B7
:10051000E5CF9081892BEFCF209176013091770143
:100520002817390761F4809175012091740190E0DA
:10053000805C9F4F821B91098F739927089590E0EB
:1005400080E00895209176013091770128173907CE
:10055000B9F49091740180917501981789F0E09138
:100560007401F0E0EC5CFE4F80812091740130E07A
:100570002F5F3F4F2F7333272093740190E008952E
:100580008FEF9FEF08952FB7F89480917D019091A0
:100590007E01A0917F01B09180012FBF8093260240
:1005A00090932702A0932802B09329028EE192E053
:1005B0000E94A20297FF26C02FB7F89480917D0178
:1005C00090917E01A0917F01B09180012FBF409159
:1005D0002602509127026091280270912902841B03
:1005E000950BA60BB70B409122025091230260910C
:1005F00024027091250284179507A607B707B0F269
:100600008FEF9FEF089590E080E008950F931F9380
:10061000CF93DF93EC0188819981009759F02A816B
:100620003B812617370730F081E0DF91CF911F9192
:100630000F9108958B016F5F7F4F0E941C080097F8
:1006400059F0998388831B830A832C813D81232B56
:1006500059F7FC011082E8CF80E0E7CF1F920F929C
:100660000FB60F9211242F933F938F939F93AF93C5
:10067000BF9380917D0190917E01A0917F01B09107
:10068000800130917C0123E0230F2D3758F501962E
:10069000A11DB11D20937C0180937D0190937E016B
:1006A000A0937F01B09380018091780190917901AE
:1006B000A0917A01B0917B010196A11DB11D80939B
:1006C000780190937901A0937A01B0937B01BF9157
:1006D000AF919F918F913F912F910F900FBE0F90EF
:1006E0001F90189526E8230F0296A11DB11DD2CFA9
:1006F0001F920F920FB60F9211242F933F934F9397
:100700005F936F937F938F939F93AF93BF93EF9379
:10071000FF9381E891E00E940B01FF91EF91BF915F
:10072000AF919F918F917F916F915F914F913F9189
:100730002F910F900FBE0F901F9018951F920F9240
:100740000FB60F9211242F938F939F93EF93FF93E4
:10075000E0919101F09192018081E0919701F091F7
:10076000980182FD1BC0908180919A018F5F8F73E9
:1007700020919B01821741F0E0919A01F0E0EF5740
:10078000FE4F958F80939A01FF91EF919F918F91EA
:100790002F910F900FBE0F901F9018958081F4CF6E
:1007A0001F920F920FB60F9211242F933F934F93E6
:1007B0005F936F937F938F939F93AF93BF93EF93C9
:1007C000FF93E0917601F0917701309749F0A6858B
:1007D000B7858585968D91FF14C09C918923A1F4DE
:1007E000FF91EF91BF91AF919F918F917F916F9109
:1007F0005F914F913F912F910F900FBE0F901F90DF
:1008000018959C91892361F7A389B4899C91858966
:10081000809589238C93868997890197F1F7608D5C
:10082000718DA685B785558538E020E0CB0101970D
:10083000F1F7822F90E095958795282F4C914523CD
:1008400009F02068315091F7868D81FD20958091C7
:10085000750190E001968F739927309174013817D4
:1008600099F0A0917501B0E0AC5CBE4F2C938093E1
:100870007501828D938D0197F1F7A389B4898C91CD
:100880009589892B8C93ACCF868D8160868FF1CF33
:10089000109284011092830188EE93E0A0E0B0E012
:1008A0008093850190938601A0938701B09388017E
:1008B0002AE031E0309382012093810125EC30E081
:1008C00030938E0120938D0124EC30E03093900121
:1008D00020938F0120EC30E030939201209391011E
:1008E00021EC30E0309394012093930122EC30E02E
:1008F000309396012093950126EC30E030939801D7
:100900002093970110929A0110929B0110929C01E2
:1009100010929D01109221021092200280932202D7
:1009200090932302A0932402B09325028CE191E0DE
:1009300090931F0280931E0210923502109234028F
:100940001092370210923602109239021092380239
:1009500010923B0210923A0260913C026E7F6D7FD2
:1009600060933C026695617081E0682783E00E9495
:100970009A0161E083E00E94E601E1EBF0E0E4919E
:10098000E0932E02EDE9F0E0E491F0E0EE0FFF1FBE
:10099000E057FF4F859194919093300280932F02FE
:1009A00060E082E00E94E60180913C0281FD04C08B
:1009B00061E082E00E949A0182E080932A02E0EBEB
:1009C000F0E0E491E0932B02ECE9F0E0E491F0E058
:1009D000EE0FFF1FEA57FF4F8591949190932D02E0
:1009E00080932C020895CF93DF93CDB7DEB728977D
:1009F0000FB6F894DEBF0FBECDBF789484B5826089
:100A000084BD84B5816084BD85B5826085BD85B5B2
:100A1000816085BD80916E00816080936E00109230
:100A200081008091810082608093810080918100AB
:100A3000816080938100809180008160809380003C
:100A40008091B10084608093B1008091B00081609A
:100A50008093B00080917A00846080937A008091C6
:100A60007A00826080937A0080917A00816080931E
:100A70007A0080917A00806880937A001092C10099
:100A800010923902109238021092370210923602F8
:100A900010923502109234028DE991E090933B025E
:100AA00080933A0290912A02963108F047C02DEBCC
:100AB00030E030933502209334022BE931E030935B
:100AC0003702209336022CE231E030933902209332
:100AD00038022091680084E0983048F031E09E3080
:100AE00008F430E081E001C0880F3A95EAF7822BE4
:100AF000809368002DE630E0983050F02BE630E02F
:100B00009E3030F02CE630E0963110F030E020E0FE
:100B10003093320220933102292F30E0983008F0D0
:100B2000BFC081E001C0880F9A95EAF78093330235
:100B300080913A0290913B020197F1F7809138023F
:100B400090913902892B49F1E0917601F09177017A
:100B500082E0EE31F80709F1309739F0A389B489C2
:100B60009C918589809589238C9380913C028E7F0E
:100B700080933C0210927501109274018EE192E014
:100B80009093770180937601E0913102F0913202E7
:100B9000808190913302892B8083E0919101F091C3
:100BA000920182E08083E0918D01F0918E011082AC
:100BB000E0918F01F09190018FEC80831092990168
:100BC000E0919501F091960186E08083E091930198
:100BD000F0919401808180618083E0919301F09194
:100BE0009401808188608083E0919301F091940169
:100BF000808180688083E0919301F09194018081ED
:100C00008F7D808361E08DE00E94E60180E0E82E28
:100C100080E0F82E8EE192E00E948C02892B09F48C
:100C200081C01A8219821C821B821E821D8270E082
:100C300060E0CE0101960E94060329813A8181116C
:100C40003CC02115310519F0C9010E9493071A8291
:100C500019821E821D821C821B820E94C3024D814A
:100C60005E8197FD32C08A30910579F18F831886B5
:100C70008A010F5F1F4FB801CE0101960E94060343
:100C8000882359F329813A818D819E81BE01695F54
:100C90007F4F820F931F0E94EB081E830D83DDCFD1
:100CA0009E3040F42850310981E001C0880F2A9518
:100CB000EAF73CCF2E503109F7CF1E821D826CE23D
:100CC00071E0C9010E94EB08C8CF69817A8181E88F
:100CD00091E00E948D0042E050E06AE271E081E81C
:100CE00091E00E948D008D819E81892BA9F0098160
:100CF0001A816DE271E0C8010E94E20861E0892B6F
:100D000041F060E371E0C8010E94E208892B21F400
:100D100060E08DE00E949A0189819A81009711F02C
:100D20000E949307E114F10409F474CF0E94F700C4
:100D3000882309F46FCF0E9400006CCF8CE191E012
:100D400090931F0280931E0280917601909177010B
:100D50008E51924071F4E0913102F0913202908113
:100D600080913302809589238083109277011092BD
:100D7000760108952F923F924F925F926F927F92E9
:100D80008F929F92AF92BF92CF92DF92EF92FF929B
:100D90000F931F93CF93DF93CDB7DEB7CA1BDB0B47
:100DA0000FB6F894DEBF0FBECDBF09942A883988EC
:100DB00048885F846E847D848C849B84AA84B984F3
:100DC000C884DF80EE80FD800C811B81AA81B981FF
:100DD000CE0FD11D0FB6F894DEBF0FBECDBFED0113
:100DE0000895EE0FFF1F0590F491E02D09940F93E5
:100DF0001F93CF93DF938230910510F482E090E04F
:100E0000E0913F02F091400230E020E0B0E0A0E04D
:100E1000309799F42115310509F44AC0281B390B84
:100E200024303105D8F58A819B816115710589F1DE
:100E3000FB0193838283FE0111C0408151810281B5
:100E4000138148175907E0F04817590799F410978C
:100E500061F012960C93129713961C933296CF0161
:100E6000DF91CF911F910F91089500933F0210934E
:100E70004002F4CF2115310551F04217530738F0E5
:100E8000A901DB019A01BD01DF01F801C1CFEF012A
:100E9000F9CF9093400280933F02CDCFFE01E20F45
:100EA000F31F819391932250310939832883D7CF3F
:100EB00020913D0230913E02232B41F4209102010A
:100EC0003091030130933E0220933D0220910001B6
:100ED000309101012115310541F42DB73EB7409104
:100EE000040150910501241B350BE0913D02F09166
:100EF0003E02E217F307A0F42E1B3F0B2817390719
:100F000078F0AC014E5F5F4F2417350748F04E0F65
:100F10005F1F50933E0240933D02819391939FCF78
:100F2000F0E0E0E09CCFCF93DF930097E9F0FC0185
:100F3000329713821282A0913F02B0914002ED01DC
:100F400030E020E01097A1F420813181820F931FBF
:100F500020913D0230913E022817390709F061C007
:100F6000F0933E02E0933D02DF91CF910895EA01B4
:100F7000CE17DF07E8F54A815B819E0141155105D7
:100F8000B1F7E901FB83EA8349915991C40FD51F59
:100F9000EC17FD0761F4808191810296840F951F03
:100FA000E90199838883828193819B838A83F0E01E
:100FB000E0E012968D919C9113970097B9F52D91D1
:100FC0003C911197CD010296820F931F20913D0213
:100FD00030913E022817390739F6309751F51092B3
:100FE000400210923F02B0933E02A0933D02BCCF5C
:100FF000D383C28340815181840F951FC817D907BD
:1010000061F44E5F5F4F88819981480F591F51836A
:1010100040838A819B81938382832115310509F066
:10102000B0CFF0934002E0933F029ECFFD01DC0180
:10103000C0CF13821282D7CFB0E0A0E0E2E2F8E0A6
:101040000C94BC068C01009751F4CB010E94F7066A
:101050008C01C801CDB7DEB7E0E10C94D806FC01E5
:10106000E60FF71F9C0122503109E217F30708F43D
:101070009DC0D901CD91DC911197C617D70798F083
:10108000C530D10530F3CE0104978617970708F3D2
:10109000C61BD70B2297C193D1936D937C93CF013D
:1010A0000E949307D6CF5B01AC1ABD0A4C018C0E8F
:1010B0009D1EA0913F02B0914002512C412CF12C79
:1010C000E12C109731F580913D0290913E028815F8
:1010D000990509F05CC04616570608F058C0809183
:1010E000000190910101009741F48DB79EB74091A6
:1010F000040150910501841B950BE817F90708F0CE
:1011000055C0F0933E02E0933D02F9017183608384
:10111000A0CF8D919C91119712966C901297139677
:101120007C901397A815B90559F56C0142E0C40EDF
:10113000D11CCA14DB0420F1AC014A195B09DA01A5
:101140001296159780F06282738251834083D90191
:101150006D937C93E114F10471F0D7011396FC9325
:10116000EE93129776CF22968C0F9D1FF9019183F3
:101170008083F301EFCFF0934002E0933F0269CF09
:101180004816590608F42C017D01D3019ACFCB01F2
:101190000E94F7067C01009749F0AE01B8010E9459
:1011A000D908C8010E949307870153CF10E000E0DF
:1011B00050CFFB01DC0102C001900D924150504024
:1011C000D8F70895FB01DC018D9101908019011081
:1011D000D9F3990B0895FB01DC0101900D920020D9
:1011E000E1F7089510E0C2E6D0E004C0FE010E94DD
:0E11F000F1062196C336D107C9F7F894FFCF58
:1011FE00000041028000000000002D018D00BA00A9
:10120E007A01EB00C900DD000000000030028D0005
:10121E0003032F028C02A20217020D0A004F4E008A
:04122E004F464600E1
:00000001FF
