:020000022000DC
:1070000000000420DD5F0600156006001D43060039
:1070100019600600294306002F4306000000000007
:1070200000000000000000000000000051F5020018
:107030002160060000000000EBF50200FBF50200F5
:10704000659706001100060027600600276006000D
:1070500027600600276006002760060027600600FC
:1070600027600600276006002760060027600600EC
:1070700027600600F998060027600600D50C060078
:1070800027600600276006002760060027600600CC
:1070900027600600276006002760060027600600BC
:1070A00027600600276006002760060027600600AC
:1070B00027600600276006000000000000000000B6
:1070C000276006002760060027600600276006008C
:1070D000276006002760060027600600276006007C
:1070E00027600600276006002760060000000000F9
:1070F0000000000027600600000000002760060076
:1071000010B5054C237833B9044B13B10448AFF3E1
:1071100000800123237010BD286F002000000000B4
:107120001445070008B5034B1BB103490348AFF3EF
:10713000008008BD000000002C6F002014450700EF
:10714000154B002B08BF134B9D46A3F5803A002139
:107150008B460F461348144A121A44F091FD0F4B08
:10716000002B00D098470E4B002B00D098470020F2
:10717000002104000D000D48002802D00C483DF00D
:107180006DFE44F079F8200029000AF059FA3DF02C
:1071900062FE00BF000008000000042000000000A4
:1071A0009D150300286F0020E86F01205D4E06004A
:1071B0000000000010B5034B0360044600F0DAFA4B
:1071C000204610BD70F4060010B5034B0360044662
:1071D000FFF7F0FF204610BD80F4060010B504460E
:1071E000FFF7E8FF20460C213EF05AF8204610BD7C
:1071F00010B50446FFF7E8FF20460C213EF050F89A
:10720000204610BD38B50C4C0C4D0D49204600F001
:10721000FDFC20460B4C0C492A463DF01AFE0A2282
:107220000A49204600F032FD2A4620460849BDE8BA
:1072300038403DF00EBE00BF446F002000600020CB
:1072400088F40600506F0020A17B0200ADF4060018
:10725000C971020013B54FF416511F4806F0D4FB54
:107260001D4806F027FC0028FAD00B20012108F069
:10727000FDF81A4B1C68236820469B68984720B984
:107280001749154807F0FCFEFEE723681549DB6B3C
:107290002046984723681449DB6A204698471349DB
:1072A000114800F0D1FC23680F491B6D2046984718
:1072B00002A9002301F8013D01231A460B4800F002
:1072C000CDFA236820465B6D98470949024807F0CC
:1072D000D7FE02B010BD00BFA077002024F6060044
:1072E00014F5060043F50600446F0020506F00209F
:1072F00047F50600F0B52C4B19680B6897B003A84A
:107300001B6F984703A800F01FFB002847D02749B0
:107310002748284C284E264D07F090FE03A96846C2
:1073200000F0F8FA6946224807F0A0FE684607F028
:1073300013FF03A800F028FB10B3204600F09FFACB
:107340000028F6D0204600F07FFA0746204600F0DD
:1073500071FA39460246684644F094FB9DF80030C5
:1073600043B11649284607F08BFE00210B2008F098
:10737000BFF8DEE73146284607F06EFE0121F5E74B
:107380000F490B4807F051FE03A9684600F0C2FA06
:107390006946074807F06AFE684607F0DDFE03A865
:1073A00000F074FA17B0F0BD24F60600D2F406001F
:1073B000A0770020506F0020F0F40600E9F40600EA
:1073C000F8F40600704710B55C2104463DF068FFF4
:1073D000204610BD0B4A02601F210022C0E909218E
:1073E000C0E90B2280F8342080F83520C0E90E2255
:1073F0000264A0F8442080F84620C0E91222C0E9C7
:107400001522704764F506008B6A8362CB6AC362FB
:107410000B6B036391F8343080F8343091F83530D9
:1074200080F835308B6B8363CB6BC3630B6C036469
:10743000B1F84430A0F8443091F8463080F8463036
:107440008B6C8364CB6CC364B1F85030A0F85030BF
:107450004B6D43658B6D8365704708B5FFF7D4FFAF
:1074600008BD70B5054686B068460E4603F060FC60
:10747000EC6C6846002CCCBF0234002403F095FC71
:107480000230241AA86A241808D4AC62AE64684694
:1074900003F08BFCE864012006B070BD0020FBE720
:1074A00010B5036C23B190F84640023304B10233A7
:1074B000941C1B1B846A1B1958BFC0E90F124FF0A4
:1074C00000045BBF80F8464083622046012010BD67
:1074D00030B5046C24B190F84650023405B1023442
:1074E0001D1D641B856A64195FBFC0E90F2301235A
:1074F000A0F8441080F8463056BF84620020184639
:1075000030BD30B5846D002CCCBF043400241D1D6B
:10751000641B856A64195DBFC0E91523A0F850108B
:107520008462002058BF012030BD70B50546806BD5
:107530000E4688B1047814B144F0C2FF841C304672
:1075400044F0BEFF0230241AA86A24185DBFAC6262
:10755000AE630120002070BD0446F0E790F835309E
:10756000826A002B0CBF6FF0020300239B185FBFE1
:107570008362012380F8353080F8341054BF1846F8
:107580000020704704307047406A704790F835001B
:10759000704738B50446406AC0F11F039342154650
:1075A00008DB0430204444F06DFA626A2A446262C7
:1075B000012038BD0020FCE770B50446406A0E4645
:1075C0001D4611460233C0F11F029A420FDB2318F9
:1075D0006A1C1A71821C0630626220445E712A465F
:1075E00044F050FA636A2B446362012070BD0020AE
:1075F000FCE770B586B00546684603F099FB68461F
:1076000003F0D3FB022804466846CCBF06260226B8
:1076100003F0C9FB2346024631462846FFF7CCFF5C
:1076200006B070BD13460A46FF21FFF7C5BF70B50F
:1076300088B008AC064624F8201D10461D461A46A0
:1076400001460DF1020044F01DFAAB1C2246FF2159
:107650003046FFF7B1FF08B070BD70B588B008AC18
:10766000064624F8201D10461D461A4601460DF117
:10767000020044F007FAAB1C224616213046FFF701
:107680009BFF08B070BD07B502AA012302F8011DD7
:107690001946FFF791FF03B05DF804FB70B505468E
:1076A00010460E46144644F00BFF22460346314670
:1076B0002846BDE87040FFF77FBF70B50546084615
:1076C0000C4644F0FDFE1D2807D9224628461D23FE
:1076D0000821BDE87040FFF76FBF22462846092108
:1076E000BDE87040FFF7DABF38B5C16A0023054630
:1076F000436229B1026B1AB1BDE83840FFF749BFB8
:1077000095F835307BB395F834102846FFF7BBFF6A
:107710000446A96C21B12846FFF76BFF0440E4B290
:10772000E96B61B12B6C53B195F84620EAB10A467A
:107730002846B5F84410FFF77AFF0440E4B26A6DBA
:1077400042B1AB6D33B1B5F850102846FFF785FF55
:107750000440E4B2A96B21B12846FFF7AEFF044014
:10776000E4B2204638BD0124D3E71A462846FFF785
:1077700059FFE2E70C4B10B504460360406838B18E
:1077800000F0B4FA20B9606810B103685B689847EC
:10779000A06838B101F023F820B9A06810B10368DF
:1077A0005B689847204610BD74F5060010B5044686
:1077B000FFF7E0FF20460C213DF072FD204610BD92
:1077C000064B10B5C0E9003100230446836011B1B7
:1077D000084600F086FA204610BD00BF74F506008A
:1077E000064B10B5036000230446C0E9013111B116
:1077F000084600F0EFFF204610BD00BF74F50600FC
:107800002DE9F3410446542098460E4617463DF0B4
:107810002FFD9DF820300093054643463A463146F9
:1078200000F03EFB29462046FFF7CAFF204602B083
:10783000BDE8F0810346406808B100F065BA986879
:1078400008B100F0F7BF70470346406808B100F088
:107850005DBA986808B100F0EBBF704710B4446897
:1078600024B120465DF8044B00F054BA806818B18A
:107870005DF8044B00F0E0BF5DF8044B70474068D2
:1078800008B100F0B4BA7047406870477047000014
:10789000024B186803681B69184700BF14F90600FB
:1078A000024B186803685B69184700BF14F90600AB
:1078B00010B4054B01791B681A685469421D1846BB
:1078C00023465DF8044B184768F7060010B50B4BCC
:1078D0000446186821790368621D9B6A98474FF631
:1078E000FF739842014606D0054B18680268BDE850
:1078F0001040926A104794F94B0010BD68F70600DB
:1079000014F9060010B54C2104463DF0C9FC204690
:1079100010BD000010B58AB0044648794B7A8A7AC7
:10792000039088790290C8790190097A009105A89E
:10793000044944F0C7FB05A9204607F058FC20463F
:107940000AB010BD7CF5060007B500230622694683
:1079500005300093ADF8043044F062F8003018BFF1
:10796000012003B05DF804FB08B502790B799A4257
:1079700008D106220531053044F052F8B0FA80F003
:10798000400908BD0020FCE710B50A4B0446186802
:1079900003681B699847236820461B6A984740B1D3
:1079A000054B217918680368621D5B6BBDE81040C8
:1079B000184710BD14F9060068F7060008B50279EB
:1079C0000B799A4208D106220531053044F028F897
:1079D000003018BF012008BD0120FCE7064A026004
:1079E0007F210022C272027380F84B10C0F805207C
:1079F000A0F80920704700BFA4F5060010B501717A
:107A00000021C1720173064C04607F2180F84B1085
:107A10001168C0F805109288A0F8092010BD00BFB9
:107A2000A4F506002DE9F0410F461449064607F07B
:107A3000DEFB3A7B00218A421CDD7B1801F1020843
:107A4000597B9B7B083B012B01F1FF340FD821466A
:107A5000304607F0A0FB0025AC420BDD08EB050328
:107A60003B443046597B07F025FC0135F4E704EB35
:107A70000801E0E73046BDE8F08100BFD4380700D8
:107A80002DE9F04F85B0884622490192834607F0E0
:107A9000AEFB0024A14698F80C30A34235D908EB80
:107AA0000403671CFFB25E7B08EB07035B7B9A1E37
:107AB000012A25D9063B012B24D810250234E4B233
:107AC00005FB05F30D34009344444FF0000A731E88
:107AD000EAB2534516DD019989450BD1114620467E
:107AE0000393029203F064F90146584607F0B7FB8E
:107AF000DDE90223009909F10109AA440C44E8E7F1
:107B00000225DBE73E44F4B2C5E7584605B0BDE8C0
:107B1000F08F00BFD438070010B500220446FFF7ED
:107B2000AFFF204610BD08B5134602798A4208D13E
:107B300006221946053043F073FFB0FA80F0400981
:107B400008BD0020FCE710B50446012000FA01F151
:107B5000E1722273194604F10D0043F093FF9DF981
:107B6000083084F84B3010BD70B50D461146C27A0E
:107B700042F010020446C272007B0D302A462044B7
:107B80001E4643F07FFF237B84F84B601D44257322
:107B900070BDC37A13F0180F14BF01200020704786
:107BA0000C4B10B504460360406838B100F09EF8F5
:107BB00020B9606810B103685B689847A06838B165
:107BC00000F00DFE20B9A06810B103685B6898470B
:107BD000204610BDD8F5060010B50446FFF7E0FFBB
:107BE00020460C213DF05CFB204610BD064B10B535
:107BF000C0E9003100230446836011B1084600F05B
:107C000070F8204610BD00BFD8F5060070B50446D8
:107C100030200E463DF02CFB3146054600F01CFDA1
:107C200029462046FFF7E2FF204670BD0346406824
:107C300008B100F04DB8986808B100F0C9BD01481E
:107C4000704700BFD4380700406808B100F042BD5B
:107C5000704740687047000030B585B00125044684
:107C60002B46009592B2FFF7CBFD04A9064B23608B
:107C7000002301F8013D2A462B462046FFF7EEFD82
:107C8000204605B030BD00BF70F4060010B50446B4
:107C9000FFF7E2FF014B2360204610BD80F4060091
:107CA00070470020704710B5202104463DF0F8FAD7
:107CB000204610BD10B5054B044640F8043B03F0C8
:107CC00037F80023E361204610BD00BFE8F5060049
:107CD000043003F066B8043003F065B8043003F0F4
:107CE00064B8C3690133C36118467047C369013B77
:107CF000C3611846704742F60300704790F82000B1
:107D0000704790F821007047406A7047806A70475A
:107D1000808D7047F8B51546426AAA42A8BF2A4628
:107D20000446828592B2806A0E4643F0ABFE94F818
:107D30002E300BB1636AA38594F8203098060DD5D8
:107D4000A28E91070AD51F4B218E186803685D6DBE
:107D50000131A38DA26A89B2A847F8BDDA0609D518
:107D6000A38EDB0706D5174B218E186803680131F7
:107D70001D6DEEE794F832300BB90120EDE7124BA0
:107D80001868036821465B6A9847104B1C68236893
:107D900001461F6B32462B462046B847094B1868F0
:107DA00003681B6B98470028E7D1094B18680368E4
:107DB0009B6898470028E0D0236820465B6D984771
:107DC000DBE700BF68F70600B4F8060024F60600FB
:107DD00068F8060038B5054608460C4644F070FBC6
:107DE000214602462846BDE83840FFF793BF0346C8
:107DF000002290F8330083F83320704701867047E3
:107E0000008E7047008E013080B27047806B7047E3
:107E1000836B994208D2C36B0022914202D05B6807
:107E20000132FAE7186870470020704730B5114BEF
:107E300003600B7903710B4601F1490453F8052FD8
:107E4000C0F805209B88A0F80930CB7AC3720B7B61
:107E5000037300F10D0201F10D0353F8045B42F8C6
:107E6000045BA342F9D11B88138091F94B3080F851
:107E70004B3030BDA4F5060038B5044608200D4649
:107E80003DF0F6F90023C0E9005363682BB9606048
:107E90002368A0600133236038BDA3685860F7E70A
:107EA00070B5044615461E46FFF704FF1D4B2360C0
:107EB000B6F5007F4FEA152384F821303346A8BF7A
:107EC0004FF40073002163629DF8103084F8205055
:107ED000A18584F82E30218684F8321084F833107E
:107EE000A186C4E90E112164102204F1440043F07C
:107EF000C7FE15F0300F0ED02C203DF0B9F90A491D
:107F00000546022304F1340200F0D4F8294604F1B6
:107F10003800FFF7B1FF304643F064FAA062204614
:107F200070BD00BF04F60600F4F5060070B5044607
:107F3000406800252368AB4206D9466808213DF019
:107F4000AFF901353046F5E70023C4E90033A360FB
:107F500070BD0000154B70B5044603600025A36B8F
:107F60009D4212D2E36B0022954202D05B6801323F
:107F7000FAE71E683046FFF7B9FE20B91EB1336834
:107F800030465B6898470135E9E704F13805284633
:107F9000FFF7CCFFA06A08B143F02CFA2846FFF7A0
:107FA000C5FF2046FFF77CFE204670BD04F60600A4
:107FB00010B50446FFF7CEFF204654213DF070F97E
:107FC000204610BDF0B5C56C97B0044617461E4656
:107FD0007DB103A8FFF72AFF21466846FFF7F0FBB3
:107FE000694603A8A8476846FFF7C4FB03A8FFF744
:107FF0004DFCA16A1C9A3944304643F043FD17B04A
:10800000F0BD70B504460E461146012280F83320BB
:1080100096B01A46FFF77EFE256D85B1314603A85E
:10802000FFF704FF21466846FFF7CAFB694603A82D
:10803000A8476846FFF79EFB03A8FFF727FC16B08A
:1080400070BD30B5838E02F00302934297B00446B0
:1080500017D08286002A0CBF442240220244556871
:108060007DB103A8FFF7E2FE21466846FFF7A8FBB3
:10807000694603A8A8476846FFF77CFB03A8FFF7FB
:1080800005FC17B030BD4FF42450704710B5034BBA
:1080900003600446FFF704FE204610BD18F60600F4
:1080A00010B50446FFF7F2FF20462C213DF0F8F80A
:1080B000204610BD70B504461D461646FFF7FAFD72
:1080C000064B2360B5F5007FA8BF4FF40075002371
:1080D000266265622385204670BD00BF18F6060043
:1080E000406A7047006A704701857047064B186800
:1080F000036810B5DB689847044B18680368BDE84F
:108100001040DB68184700BFB4F8060014F90600F9
:10811000024B186803681B69184700BF14F9060072
:10812000024B186803685B69184700BF14F9060022
:1081300010B5064B186803681B699847044B18680C
:108140000368BDE810401B6B184700BF14F9060018
:1081500068F7060010B5064B186803681B69984756
:10816000044B18680368BDE81040DB6B184700BF7C
:1081700014F9060068F70600024B186803689B6C48
:10818000184700BF68F706000C307047683070472A
:10819000024B186803681B69184700BFB4F8060053
:1081A000024B186803685B69184700BFB4F8060003
:1081B000024B186803689B69184700BFB4F80600B3
:1081C000024B186803681B69184700BF68F806006F
:1081D000024B186803685B69184700BF68F806001F
:1081E000024B186803685B6A184700BF68F806000E
:1081F00010B5074B0446186803681B699847054B80
:1082000019680B682046DB6C9847204610BD00BFFC
:1082100014F9060068F7060010B5074B0446186805
:1082200003681B699847054B19680B6820469B6AD1
:108230009847204610BD00BF14F9060068F80600F4
:10824000024B18680368DB6A184700BF68F806002D
:10825000024B186803689B69184700BF78FB06004B
:10826000024B18680368DB69184700BF78FB0600FB
:10827000024B186803681B6B184700BF68F80600BC
:10828000024B18680368DB68184700BF68F70600F0
:10829000024B186803681B6A184700BF78FB06008A
:1082A000024B186803685B6A184700BF78FB06003A
:1082B000024B1B68C3F8F010704700BF14F90600AA
:1082C000024B1B68C3F8F810704700BF14F9060092
:1082D000024B1B68C3F8F410704700BF14F9060086
:1082E000024B1B68C3F8EC10704700BF14F906007E
:1082F000024B1B68C3F8FC10704700BF14F906005E
:10830000024B1B68C3F80011704700BF14F9060048
:10831000024B18680368D3F89C30184714F906001C
:10832000024B18680368D3F8A030184714F9060008
:10833000F0B52A4B1D682B6887B004469B68284619
:108340009847064620B923682046DB6898470DE029
:10835000642007F031F82B6828469B699847064649
:1083600038B123682046DB6898470026304607B0BE
:10837000F0BD05AA2B6801920DF112020092DF698F
:1083800004AA0DF10E030DF10D012846B84700288F
:10839000D9D12B684FF0FF32D96A28466FF040439D
:1083A00088470028CFD12B6840F2FF32196B28464E
:1083B0000023884706460028D3D12B680DF10F0211
:1083C0005B6B0DF11601284698470028BBD1044B82
:1083D000186803689B6898470126C7E714F90600E8
:1083E000B4F8060010B58CB000230593ADF8183032
:1083F000104B04461868036805A91B6A98479DF846
:10840000141003919DF8151002919DF8161001911A
:108410009DF817109DF818309DF81920009107A8B5
:10842000054943F04FFE07A9204606F0E0FE20462E
:108430000CB010BD14F906007CF506000C30FFF7F7
:1084400010B870B50368044608469D6AFFF7EEFB56
:108450002B4601462046BDE8704018470C30FFF718
:1084600050B80C30FFF71CB80C30FFF731B868304B
:10847000FFF75BB86830FEF7F0BF10B500F10C04F1
:108480002046FEF7EAFF2046FFF780F828B920468D
:108490000621BDE81040FFF761B810BD2DE9F74394
:1084A00000F10C05044668342846FFF71DF9204604
:1084B000FFF71AF90E4B1E6833682846DF68FFF78E
:1084C00061F880462846FFF75FF805462046FFF72B
:1084D00059F881462046FFF757F8C0B200904B4646
:1084E000EAB241463046B84703B0BDE8F08300BF6A
:1084F00068F806007FB5094B1C682368164601A87A
:108500009D6906F0A2FE324601A92046A84704460E
:1085100001A806F021FE204604B070BD68F80600F0
:108520007FB5094B1C682368164601A8DD6906F073
:108530008CFE324601A92046A847044601A806F051
:108540000BFE204604B070BD68F806007FB5094BED
:108550001C682368164601A81D6A06F076FE32469E
:1085600001A92046A847044601A806F0F5FD2046CB
:1085700004B070BD68F8060002290BBF044B054B20
:10858000186818680BBF036803685B6B9B6D18471E
:1085900068F8060068F7060038B50446084B44F84A
:1085A0000C3B05462046FEF715FF05F16800FEF777
:1085B00011FF06212046FEF7D1FF284638BD00BF37
:1085C00030F6060010B5054C2046FFF7E5FF2046C3
:1085D000034A0449BDE810403CF03BBC5C6F0020FE
:1085E00000600020E985020010B5064B044640F803
:1085F000683BFEF7E7FE04F10C00FEF7E3FE2046C1
:1086000010BD00BF30F6060010B50446FFF7ECFFC2
:108610002046C4213CF044FE204610BD10B50B4B53
:1086200019680B6894B001A8DB6C984701A8FFF7A4
:108630008BF948B101A8FFF749F9044601A8FFF7F3
:1086400025F9204614B010BD7F24F7E768F706002F
:108650004FF420507047000010B50446FFF72AFB86
:10866000044B23600023C4E90833C4E90A332046DD
:1086700010BD00BFFCF60600018442847047008CE8
:108680007047408C7047406A7047436A994208D2ED
:10869000836A0022914202D05B680132FAE71868CF
:1086A00070470020704738B5044608460D46FFF76E
:1086B00018FB08203CF0DCFD0023C0E90053A36A4E
:1086C0002BB9A062636AE0620133636238BDE36A7A
:1086D0005860F7E710B504460846FFF7D5F801469D
:1086E00020B12046BDE81040FFF7DDBF10BD70B5DA
:1086F0000446406800252368AB4206D94668082135
:108700003CF0CEFD01353046F5E70023C4E90033E7
:10871000A36070BD134B70B5044603600025636A07
:108720009D4212D2A36A0022954202D05B680132B8
:10873000FAE71E683046FFF7D9FA20B91EB1336850
:1087400030465B6898470135E9E704F1240528467F
:10875000FFF7CDFF2846FFF7CAFF2046FFF7A0FA34
:10876000204670BDFCF6060010B50446FFF7D2FFA8
:10877000204630213CF094FD204610BD10B5044B3E
:10878000044640F8043B06F0E7FC204610BD00BF5D
:1087900010F7060010B50446FFF7F0FF204614213D
:1087A0003CF07EFD204610BD38B504462546074BFB
:1087B00045F8043B0846114602F0FAFA01462846FD
:1087C00006F015FD00232361204638BD10F7060092
:1087D00040687047036901330361184670470369B5
:1087E000013B03611846704770B504461E46BDF84C
:1087F0001450FFF7D9FF0D4B2360BDF81030E38212
:10880000BDF81830257663832D0A00230122A68245
:108810006576C4E9073384F8243084F82520C4E958
:108820000A33C4E90C33204670BD00BF20F70600B0
:10883000C0697047006A70472DE9F0439846274B9E
:108840001E68336885B004460F469B6B818A3046AC
:108850009146984718B9002005B0BDE8F083336809
:10886000A18A5B6C30469847033885B24D45A8BF56
:108870004D462946E06943F063FAE0610028EAD0FA
:10888000237E1A071CD5B8F1000F19D003A833684E
:108890000190E8B20090D3F86080628BA18A3B46D9
:1088A0003046C0470028D7D09DF80C30012BD2D0DD
:1088B0002A463946E06943F0E5F825620120CBE716
:1088C0005B07C8D53368628BA18AE8B20090D3F801
:1088D000648030463B46C047EAE700BF68F70600C1
:1088E000408B704738B5044608460D46FFF772FFC7
:1088F00008203CF0BDFC0023C0E90053E36A2BB91B
:10890000E062A36A20630133A36238BD236B586021
:10891000F7E770B50446406800252368AB4206D9E6
:10892000466808213CF0BCFC01353046F5E70023E1
:10893000C4E90033A36070BD03688B4208D9436863
:1089400000228A4202D05B680132FAE71868704759
:1089500000207047F8B50546134B45F8283B044600
:108960000026A36A9E420ED231462846FFF7E4FF56
:108970000746FFF734FF20B91FB13B6838465B68F4
:1089800098470136EDE72846FFF7C3FFE06918B1C5
:1089900042F030FD0023E3612846FFF7BAFF20468E
:1089A000FFF7ECFE2046F8BD20F7060010B50446A0
:1089B000FFF7D0FF204638213CF072FC204610BD66
:1089C00070B50446036296B00D46C0691946164656
:1089D00043F0B6F9E06110B9206216B070BD012312
:1089E00084F824300023314684F82530226A43F08D
:1089F00049F8666B002EF0D0194B03932B798DF854
:108A000010302B4605F1490153F8052FCDF8112000
:108A10009B88ADF81530EB7A8DF817302B7B8DF8ED
:108A200018300DF1190205F10D0353F8040B42F84B
:108A3000040B8B42F9D11B88138095F84B308DF8CD
:108A4000573021466846FEF7CBFE694603A8B0477B
:108A50006846FEF78FFE03A8FEF718FFBDE700BFCC
:108A6000A4F50600074B10B504460360806918B1F1
:108A700042F0C0FC0023A3612046FFF77FFE2046A2
:108A800010BD00BF30F7060010B50446FFF7EAFF3F
:108A9000204620213CF004FC204610BD38B5044699
:108AA0001D46FFF781FE054B2360BDF81030E382C1
:108AB0000023A582C4E90633204638BD30F70600FE
:108AC000034A02600022C0E90122C260704700BF71
:108AD00040F7060038B5044608460D46FFF77AFE13
:108AE00008203CF0C5FB0023C0E90053A3682BB964
:108AF000A0606368E0600133636038BDE36858607C
:108B0000F7E7406870474368994208D283680022BB
:108B1000914202D05B680132FAE718687047002082
:108B2000704770B50446406800252368AB4206D9FB
:108B3000466808213CF0B4FB01353046F5E70023D8
:108B4000C4E90033A36070BD70B5064600247368A5
:108B50009C4212D2B3680022944202D05B68013278
:108B6000FAE71D682846FFF73AFE20B91DB12B68C9
:108B700028465B6898470134E9E7301DFFF7D1FFCD
:108B800070BD000038B50446054B44F8043B05466B
:108B9000FFF7DAFF2046FFF7C4FF284638BD00BFC5
:108BA00040F7060010B50446FFF7ECFF2046102101
:108BB0003CF076FB204610BD38B504461D46FFF755
:108BC000F3FD084B2360BDF81030E382A58206490F
:108BD00004F1180006F00BFB0023C4E90933E3623B
:108BE000204638BD50F70600D4380700808A704709
:108BF000C08A7047406A7047436A994208D2836AC4
:108C00000022914202D05B680132FAE7186870478F
:108C10000020704738B5044608460D46FFF7DAFDD8
:108C200008203CF025FB0023C0E90053A36A2BB9C0
:108C3000A062636AE0620133636238BDE36A586030
:108C4000F7E770B50446406800252368AB4206D9B3
:108C5000466808213CF024FB01353046F5E7002347
:108C6000C4E90033A36070BD154B70B504460360C2
:108C70000025636A9D4212D2A36A0022954202D067
:108C80005B680132FAE71E683046FFF7A8FD20B99D
:108C90001EB1336830465B6898470135E9E704F157
:108CA00024052846FFF7CDFF2846FFF7CAFF04F149
:108CB000180006F051FA2046FFF760FD204670BD0F
:108CC00050F7060010B50446FFF7CEFF20463021CE
:108CD0003CF0E6FA204610BDA0F8A8107047C0F896
:108CE000AC1070472DE9FF41013A13F8014BD6B2A1
:108CF0000268CDE90233526C05460F4690470C2CB2
:108D000002462968029B79D02FD8052C69D01AD841
:108D1000022C60D00BD8012C53D006230093D1F83D
:108D2000DC600023224639462846B0476EE0032C1B
:108D300054D0042CF1D10093D1F8944033463946F5
:108D40002846A04762E0092C52D007D8062C4BD009
:108D5000082CE2D10093D1F8A440EFE70A2C4DD0C3
:108D60000B2CDAD1D1F8B4402DE0162C51D00FD80D
:108D7000112C40D005D8102CCFD10093D1F8B84099
:108D8000DCE7122C18D0132CC7D1D1F8C8401AE058
:108D90001D2C04D00CD8182C3FD01B2CBDD1009317
:108DA000D1F8D4803346224639462846C0472DE0C4
:108DB0001E2C36D0522CB0D1CDE90063D1F8C4605E
:108DC00020E0D1F88440324639462846A44604B013
:108DD000BDE8F0416047D1F88840F4E7D1F8904011
:108DE000F1E7D1F89C40EEE70093D1F8A040A5E769
:108DF000D1F8AC40E7E7D1F8C040E4E7CDE9006343
:108E0000D1F8B060234639462846B04704B0BDE8E3
:108E1000F0810093D1F8CC4090E70093D1F8D04096
:108E20008CE7D1F8D840CEE700F18C034FF6FF7203
:108E3000B0F8B010914204D11C309842F8D1002013
:108E400070470120704708B503689B6A98474FF642
:108E5000FF73C01A18BF012008BD000038B50A4BC7
:108E60000446186803681B690D469847204604F1BC
:108E70008C03B0F8B020AA4204D01C309842F8D13C
:108E8000002038BD0120FCE714F9060000F18C0336
:108E900090F9C820002A04DB1C309842F8D1002049
:108EA00070470120704730B500231C2404FB0302E7
:108EB000B2F8B0508D4204D00133052BF6D100201A
:108EC00002E092F8C800C00930BD30B500231C2470
:108ED00004FB0302B2F8B0508D4202D1B2F8C000D8
:108EE00030BD0133052BF3D11720F9E71FB5ADF8DD
:108EF0000D200268009302248DF80C400323D2F861
:108F0000F04003AAA04704B010BD1FB5ADF809207A
:108F1000ADF80B30069A0368009204248DF80840DF
:108F200002AAD3F8F0400523A04704B010BD1FB536
:108F3000ADF80B30BDF81830ADF80920ADF80D30A4
:108F4000079A0368009210248DF8084002AAD3F80B
:108F5000F0400723A04704B010BD1FB5ADF80B309B
:108F6000BDF81830ADF80920ADF80D30079A036848
:108F7000009208248DF8084002AAD3F8F040072395
:108F8000A04704B010BD012380F83C3170470000B9
:108F90001FB5ADF80A309DF818308DF80C30084B2D
:108FA0008DF8092001208DF80800186802AA0368CE
:108FB0000092D3F8944004220523A04704B010BDCA
:108FC00014F9060001299CBF00EB8100C0F8542170
:108FD00070471FB5ADF80D20026800930A248DF884
:108FE0000C400323D2F8F04003AAA04704B010BD00
:108FF00070B500231C2505FB0304B4F8B0608E4255
:1090000004D00133052BF6D1002002E084F8C820FB
:10901000012070BD70B500231C2505FB03F4061963
:10902000B6F8B0608E4204D00133052BF5D1002094
:1090300010E004F1B3010144941D11F8015F04F83C
:1090400001599442F9D11C2202FB0303012093F839
:10905000B330237070BD00002DE9F843DFF8648061
:1090600000F1B40400F5A07500264FF6FF774FF02D
:10907000170934F8041CB9421BD0D8F80000036863
:10908000D3F898309847A0B904F8020C04F8010C02
:109090002060A080C4F806006081206924F8047C68
:1090A0000136A4F80C9010B103685B689847002360
:1090B00023611C34AC42DCD1002ED4BF002001203F
:1090C000BDE8F88314F9060010B5054B03600446AB
:1090D000D0F8400108B142F08DF9204610BD00BF24
:1090E00074F7060010B50446FFF7EEFF20464FF474
:1090F000AE713CF0D5F8204610BD00002DE9F043DC
:109100001D4B1D688BB006230F460421002490469A
:109110002A680097CDE90713C821CDE905410C2144
:10912000CDE90331CDE901840646D2F854902346B7
:10913000302260212846C847D8B906F02BF90446EA
:1091400006F028F9D6F8AC30001B98422B680DD2F7
:109150001B6928469847336842465B6B3946304660
:1091600098470028ECD00BB0BDE8F083DB6D2846B3
:1091700098470020F7E700BF14F90600F8B5036828
:109180009B6A044698474FF6FF73984206461ED0E6
:10919000104B1D682B680146D3F898302846984735
:1091A00006F0F8F8074606F0F5F8D4F8AC30C01B26
:1091B00098420CD22B6828461B6998472368314691
:1091C0009B6B204698470028EDD10120F8BD002078
:1091D000FCE700BF14F906002DE9F3410546089CA1
:1091E000A5F848111078C5F84C41013085F84A01BE
:1091F000002085F850011948066830680092D0F8C0
:109200009480DBB2042230460F46C04724B306F0F8
:10921000C1F8044606F0BEF8D5F8AC30001B984201
:1092200014D2336830461B6998472B6839469B6BCC
:109230002846984750B195F850010028EAD04FF6DB
:10924000FF73A5F8483102B0BDE8F0814FF6FF7317
:10925000A5F848310020F6E72046F4E714F90600A7
:109260002DE9F047994603689B6A044698474FF6F4
:10927000FF739842074604D14FF000084046BDE80E
:10928000F08723680146D3F8E030204698478046AF
:109290000028F1D000251C2303FB054ABAF8B06072
:1092A000BE4233D1DAF8C4303BB910203BF0E0FFC6
:1092B0000746FFF705FCCAF8C4701C2303FB0545ED
:1092C000D5F8C450002DD7D02846B9F1000F21D1D0
:1092D000FFF73AFC23682A46D3F8E47031464B4640
:1092E0002046B8470028C7D023682A46D3F8E8307C
:1092F0003146204698470028BED023682A4631468A
:109300002046D3F8EC30BDE8F04718470135052D6D
:10931000C2D1B1E7FFF7F5FB002782465745D9DAFE
:1093200039462846FFF7EFFBFFF752FA494642F06D
:109330002FFF0028A2D00137F0E7F0B5C5B00446F2
:109340009DF82851ADF80D200F4612218DF80C1014
:109350002A4619460DF10F0042F094FB23684B9A00
:109360000092D3F8F06003AAEB1C39462046B047C0
:1093700045B0F0BDF0B5C5B004469DF82851ADF834
:109380000D200F4652218DF80C102A4619460DF17A
:109390000F0042F077FB236800220092D3F8F060C0
:1093A00003AAEB1C39462046B04745B0F0BD70B566
:1093B00000241C2505FB04F3C618B6F8B0608E42E5
:1093C00004D00134052CF5D1002006E0C9331488FF
:1093D000C452C11893788B70012070BD10B500F194
:1093E000C90300F2551033F8194C8C4201BF1C8898
:1093F00014809C7894701C338342F4D1002010BDFB
:1094000070B500241C2505FB04F3C618B6F8B0603F
:109410008E4204D00134052CF5D1002006E0B4338F
:1094200018440368136083889380012070BDF0B5F1
:1094300000241C2606FB04F3C518B5F8B0708F4253
:1094400004D00134052CF5D1002009E0BA330344DF
:10945000591E11F8010F20B9C1F1BF004019F8D110
:10946000F0BD196811609B8893800120F8E7000027
:109470002DE9F04196B098461C9E044600271C2317
:109480004FF6FF7C03FB07F56019B0F8B0E0E64546
:1094900005D00137052FF5D116B0BDE8F0811723AF
:1094A00080F8B220A0F8C030A0F8B01080F8B380E7
:1094B00005F1B4033168E150E218B388938001A943
:1094C000731E052213F8010F505412F1FF32F9D226
:1094D0000D4B1868BA3503686719D3F890303A46CF
:1094E000984708B96051B880D4F85441002CD3D0C3
:1094F0003246414603A8FEF781FA03A8A04703A815
:10950000FEF7C4F9C8E700BF14F906002DE9F041E1
:1095100006460F46904600F1B405002415F8013CBC
:10952000BB420CD106224146284642F079FA30B9B6
:109530001C2303FB0464B4F8B000BDE8F0810134DF
:10954000052C05F11C05E9D14FF6FF70F5E72DE973
:10955000F04106460F46904600F1B405002415F888
:10956000013CBB420CD106224146284642F058FA43
:1095700030B91C2303FB0464D4F8C400BDE8F081B7
:109580000134052C05F11C05E9D10020F6E738B5BA
:109590004FF6FF7204460B460020B3F8B0509542D8
:1095A00003D093F8B250012D08D00130052803F103
:1095B0001C03F2D12046FEF711FA0AE01C234343B4
:1095C00003F1B4020B440A44204693F8B310FEF7AB
:1095D00015FA204638BD98B5B0F8A820D31DEC4642
:1095E000DB08ACEBC30300AF9D460368D3F88C40A7
:1095F0006B46A047003018BF0120BD4698BD000053
:109600002DE9F04F87B002AF1D46DFF890A0B9609A
:1096100000F18C0391460446FB600026B4F8B0804C
:10962000C7F804D04FF6FF7398452BD0B4F8C0307C
:10963000DA1D6946D208A1EBC202033B95469BB2F4
:10964000ADB29D424FF01B0228BF1D468DF8082089
:109650003A89ADF8092049462A460DF10B0042F03F
:1096600011FADAF800000DF1080B0268CDF800B02D
:10967000EB1CD2F894B0DBB204224146D847D7F8AD
:1096800004D00136FB681C349C42C7D1002ED4BFE5
:10969000002001201437BD46BDE8F08F14F9060004
:1096A0002DE9F04F87B002AFC7E900211E4600F553
:1096B000A073054600F1B404BB604FF0000934F814
:1096C00004ACC7F80CD04FF6FF739A4542D0A3897B
:1096D000DA1D6946D208A1EBC202033B95469BB254
:1096E000B6B29E424FF01D0228BF1E468DF80820DC
:1096F000BA88ADF80920396832460DF10B0042F006
:10970000C1F9002385F83C31194BD3F800800DF1E5
:10971000080BD8F80020CDF800B0F31CD2F894B0B4
:10972000DBB2042251464046D84795F83C316BB92C
:10973000D8F8003040461B6998472B6814F8011C84
:109740005B6B2246284698470028EED1D7F80CD00C
:1097500009F10109BB681C34A342B0D1B9F1000F73
:10976000D4BF002001201437BD46BDE8F08F00BFF4
:1097700014F906002DE9F04F89B002AF042BFA600E
:109780003A6CC7F808D0C7E9041014880AD00368F7
:1097900004220092D3F8DC502346A8471C37BD466C
:1097A000BDE8F08FFB6807336A46DB08A2EBC30312
:1097B0009D460DF1080805238DF80830002388F830
:1097C0000130484B013CD3F800A0A4B20225DAF8DE
:1097D00000305046DB699847844258D23B6C5B8826
:1097E000A34254D9DAF8003021461B6A5046984704
:1097F00003689B688346984742F603030134984206
:10980000A4B255D15846FEF7FDFA231A59425941E0
:10981000DBF8003079609B685846984779680246C3
:1098200011B9B0F5245F45D15846C7E90012FEF7DB
:1098300055FAD7E900120228064614BF0223012375
:1098400098F8010008B988F8013098F801009842AA
:109850001DD105F102091FFA89F928F8054008EB26
:10986000090311B9B2F5245F27D158467B60FEF792
:1098700032FA7B6801463246184642F003F909EB9A
:109880000605ADB20236FB682E44B3429FDA022DC4
:109890001CD17A693B6C12681B880A210091D2F8AE
:1098A000DC40D7E904100422A047D7F808D075E7B8
:1098B0000021ADE702260123C2E7DBF8003058465D
:1098C0009B689847043528F80900DAE7064B1868C2
:1098D0000368CDF80080D3F894403969EBB20422D4
:1098E000A047E2E7B4F8060014F906002DE9F04FAE
:1098F00089B002AF052B3E6CC7F808D08346C7E994
:10990000032134880BD8036804220092D3F8DC507A
:1099100006222346A8471C37BD46BDE8F08FFA68EB
:1099200007326946D208A1EBC202954607228DF89C
:109930000820B288B2F5205F0DF1080A0DD0DBF8DF
:10994000002033880A210091D2F8DC4039690622D0
:109950005846A047D7F808D0DDE7063B9BB27B61AD
:10996000274B013CD3F80090B31DA4B201257B60C6
:10997000D9F800304846DB699847844232D2738870
:10998000A3422FD9D9F8003021461B6A4846984790
:1099900003689B6880469847B38883421BD1404642
:1099A000FEF79CF97B69984215D14046FEF793F982
:1099B0007A69796842F034F868B94046FEF75FFE8C
:1099C0002AF805004046FEF75CFEAB1C9BB204354E
:1099D0002AF80300ADB2FA68EB1C9A4202DD0134AA
:1099E000A4B2C5E7012DAAD0064B18680368CDF8CC
:1099F00000A0D3F894403969EBB20422A047A9E74C
:109A0000B4F8060014F906002DE9F04F89B002AF52
:109A1000062BBA603A6CC7F80CD081468B46158885
:109A200004D19388A3F52053012B0FD9D9F8003026
:109A300010220092D3F8DC402B4659464846A047F6
:109A4000D7F80CD01C37BD46BDE8F08FBB68073394
:109A50006A46DB08A2EBC3039D4602AE11238DF8D4
:109A6000083000237370364B013DD3F800A0ADB22F
:109A70000224DAF800305046DB699847854247D225
:109A80003B6C5B88AB4243D9DAF8003029461B6A4D
:109A9000504698473B6C02689B887B619268804681
:109AA00090477B69834230D14046FEF717F9022880
:109AB000034614BF142306233B61737878610BB906
:109AC0003B7C737073783A69934221D14046FEF72C
:109AD000D6FD30534046FEF7D4FDA31C9BB20434A0
:109AE000A4B2F052331940467B60FEF7F4F87B686D
:109AF0007A690146184641F0C5FF7B69BA681C4483
:109B00003B69A4B223449A4202DB0135ADB2B0E70F
:109B1000022C09D13B6CD9F800201B880A21009146
:109B2000D2F8DC40102288E7064B186803680096DC
:109B3000D3F894500422E3B25946A84780E700BF07
:109B4000B4F8060014F906002DE9F04F89B002AF11
:109B500091463A6CC7F808D0062BC7E90310158860
:109B60000BD0036804220092D3F8DC4008222B4675
:109B7000A0471C37BD46BDE8F08F09F107036A46D0
:109B8000DB08A2EBC3039D460DF1080809238DF8FD
:109B90000830002388F801306D4B1B687B613B6CFB
:109BA000013D0433ADB202247B607B6978691B6898
:109BB000DB699847854280F083803B6C5B88AB42D1
:109BC0007ED97B6978691B6829461B6A98470368B8
:109BD0009B68064698473B6C9B888342336805F137
:109BE000010A1FFA8AFA9B6830467AD1984742F6F2
:109BF000030398423DD13046FEF704F9824535D043
:109C00003046FEF76BF898F801200228034614BF8F
:109C10004FF0150B4FF0070B0AB988F801B098F810
:109C200001203B605A454BD128F804A03046FEF78E
:109C300065F8A21C92B2023508F80200E21C92B24A
:109C4000304628F80250FEF746F805343B68A4B2C7
:109C500008EB04051A460146284641F013FF3B680D
:109C60001C44A4B2A344D9452ADB55460135ADB204
:109C70009BE7336830469B68984742F60213984248
:109C8000F4D128F804A03046FEF72AFA0234A4B230
:109C9000A9EB040980B21FFA89F9814528BF8146E2
:109CA000304608EB0405FEF71DFA4A4601464C44CF
:109CB000284609F1020941F0E5FEA4B288F80190B6
:109CC000022C38D13A693B6C12681B880A2100913A
:109CD000D2F8DC40D7E903100822A047D7F808D013
:109CE00047E7984742F603039842BFD13046FDF755
:109CF000F5FF02288346B9D13046FDF7ECFF5A46FE
:109D00000146786841F08CFE0028AFD128F804A005
:109D10003046FDF7FDFF0234A4B2A9EB04091FFA97
:109D200089F980B2814528BF8146304608EB040599
:109D3000FDF7ECFFB9E7074B18680368CDF8008022
:109D4000D3F89450F968E3B20422A847C6E700BFED
:109D5000B4F8060014F906002DE9F043012B97B082
:109D6000044602AF0E461546E8460BD003680422AF
:109D70000092D3F8DC4018220023A0475437BD4698
:109D8000BDE8F083B0F83E1129B33B6F1B78DB07C9
:109D900021D5204B1868036801391B6A98470023B6
:109DA00081461C2000FB03F2A118B1F8B0C0B445F5
:109DB0002CD1B432224491F8B310381DFDF71EFEA9
:109DC0004846B4F84431D4F84021391DFEF719F95A
:109DD000381DFDF75BFD00230735A4F83E31A4F8DC
:109DE0004431ED086B46A3EBC5039D4619238DF85E
:109DF0000830094B186802AA03680092D3F894400F
:109E0000042201233146A047C546B7E70133052B9D
:109E1000C8D1E0E7B4F8060014F906002DE9F04FC8
:109E200087B002AF032B04460D467A601E46C7F882
:109E30000CD00DD8036804220092D3F8DC4016221F
:109E40000023A047D7F80CD01437BD46BDE8F08FEB
:109E5000BB6B1B883B811FFA83F8BB6BB3F802B066
:109E60004B4BD3F80090D9F800304846DB6998474F
:109E700008F1FF318BB2834206D923680A2200928F
:109E8000D3F8DC60434620E0D9F8003048461B6A2E
:109E9000984703689B688146984742F603039842B7
:109EA00002D023680B22EAE74846FDF7ABFF4045A6
:109EB0008246F6D14846FDF721FF03070AD42368FE
:109EC00003210091D3F8DC60534616222946204630
:109ED000B047B7E7B4F83E31E3B948463B60FDF719
:109EE00013FF01468246D4F8400141F029FF3B6848
:109EF0003A89A4F83E21C4F84001A4F844315246FE
:109F0000194641F0BDFEB4F844315B4507D02368E3
:109F10000722B4E75345F6D023680E21D1E7331F5B
:109F20005FFA83FA0BEB0A024846BA60FDF7ECFED3
:109F3000BA6880B28242EADCBB6BD4F84001524678
:109F4000191D584441F09EFDB4F84421B96B0AEB49
:109F50000203A4F844317B6807336A46DB08A2EBAE
:109F6000C3039D4617238DF8083032460DF10900D2
:109F700041F088FD074B186802AC02680094731C1E
:109F8000D2F89440DBB204222946A0475AE700BF2A
:109F9000B4F8060014F906002DE9F04F8FB002AFB7
:109FA000C7E90021FB60B0F8A830F96807336A46BA
:109FB000DB08A2EBC30307F118059D46834628463C
:109FC00000F0B6FE0DF108090124BD60DBF8003099
:109FD000CDF804904FF420520092D3F8BC50796829
:109FE0004FF6FF7322465846A847054620B199F818
:109FF0000030112B04D001203437BD46BDE8F08F6E
:10A0000099F801307B61A3F1040802235FFA88F814
:10A0100009F102063B614FF6FF7A3B69AB4204DB74
:10A020004FF6FF739A45D1D0E5E7FB68E3B93020DE
:10A030003BF01EF93146728831F8043B0092044629
:10A040004246FEF7B9FD21463868FEF743FD7488A5
:10A05000D7E904320134A4B2002C134408BF4FF0F6
:10A06000000A3B611644D8E7B86800F09EFE404500
:10A07000EDD1B86800F097FE42460146301D41F030
:10A08000CFFC0028D3D0E2E72DE9F04F8DB0B0F837
:10A09000A83004AFC7E9042107336A46DB08A2EB06
:10A0A000C3039D4682463869FEF72BFD0DF110096A
:10A0B000F8604FF00008FB6898454ADA4146386975
:10A0C000FEF721FDB861FEF791FD0646B869FEF77F
:10A0D0008FFDB860DAF80030CDF8049042F6030244
:10A0E0000092D3F8A8407969BB6832465046A04731
:10A0F000054678B399F80030092B27D199F801303B
:10A10000FB61053BDBB27B6009F102044FF0020BFF
:10A11000AB45DFDA38203BF0ABF8B4F803300293FC
:10A12000A37801932388009306467B697A68611DB2
:10A13000FEF75AFB3146B869FEF76CFDB4F80360D0
:10A14000FB690136B6B29B441C44E1E708F1010803
:10A15000B1E701202437BD46BDE8F08F2DE9F04F6F
:10A160008FB0B0F8A83002AF0733C7E90421DB088D
:10A170006A46A2EBC3039D4602AB82463869FB6286
:10A18000FEF7BFFC4FF0000BF860FB689B456EDAF2
:10A1900059463869FEF7B7FC7862FEF729FDB860CA
:10A1A000786AFEF727FD431E386200267B603B6A13
:10A1B0009E4259DA3146786AFEF71EFD7B68F861E7
:10A1C0009E424AD0711C786AFEF716FD0546F86972
:10A1D000FEF786FB013084B2002D40D02846FEF702
:10A1E0007FFBB862BB6AA3423CD3DAF80030FA6A5C
:10A1F0000092D3F898507969BB6A22465046A84726
:10A200000546002834D0FB6A1B78052B2AD1FB6A4F
:10A2100093F801904FEA8903BB61FB6A4FF0020992
:10A2200003F10208A945E0DA20203BF021F8B8F854
:10A2300000300093022208EB020104467B69FEF71E
:10A240002DFC2146F869FEF74DFBB8F80040BB69CC
:10A250000134A4B299449844E4E70025B7E7BB6809
:10A26000BB62BFE70136A2E70BF1010B8DE70120CE
:10A270003437BD46BDE8F08F022A7FB504460D464F
:10A2800009D0036804220092D3F8DC4002220023A4
:10A29000A04704B070BD1B88B0F8A8209A4228BF20
:10A2A0001A461C20002300FB0341B1F8B060AE4207
:10A2B00011D1A1F8C020ADF80D20094A0323106880
:10A2C0008DF80C30026803A90091D2F89440294619
:10A2D0000422A047DDE70133052BE4D1EBE700BF03
:10A2E00014F90600042A15D1B0F848218A4211D188
:10A2F00090F84A211978013A8A420BD1D0F84C21C2
:10A3000001211170D0F84C211B68C2F801300523DF
:10A3100080F850317047022A70B51CD100221C25EC
:10A3200005FB0204B4F8B0608E4215D11A88A4F877
:10A33000C020B0F848218A420DD190F84A21032A62
:10A3400009D1D0F84C110A70D0F84C111B88A1F833
:10A35000013080F8502170BD0132052AE0D1E8E7D4
:10A36000012A38B50446154613D9B0F84801884289
:10A370000FD194F84A0105280BD1D4F84C1108707C
:10A38000D4F84C0119460130013541F07BFB84F8CB
:10A39000505138BD012A38B50446154613D9B0F8D6
:10A3A000480188420FD194F84A0111280BD1D4F802
:10A3B0004C110870D4F84C0119460130013541F0B8
:10A3C00061FB84F8505138BD38B50446B0F84801F7
:10A3D000884215460FD194F84A110B290BD1D4F8B5
:10A3E0004C010170D4F84C0119460130013541F09F
:10A3F00049FB84F8505138BD38B5044615469AB12A
:10A40000B0F8480188420FD194F84A0109280BD1CD
:10A41000D4F84C110870D4F84C01194601300135BC
:10A4200041F030FB84F8505138BD6AB9B0F848317A
:10A430008B4209D190F84A31132B01BFD0F84C213F
:10A440001370012380F850317047000070B5054645
:10A4500090F8850094B0F8B1104B114C1868B4F81E
:10A460004410036801391B6A984704F14702064605
:10A4700094F8461001A8FDF7C1FA94F84D3004F1A4
:10A480004E0201A93046FDF7BCFD01A8FDF7FEF91B
:10A49000002385F88530012014B070BDB4F80600A3
:10A4A000207000202DE9F04F9BB0012B88460492CC
:10A4B00061D9249A023B1688059300F5A07200F139
:10A4C000B404039234F8043C43453FD12569002D80
:10A4D00040D02846FEF715FB4FF0000A8146D145D3
:10A4E00034DD51462846FEF70EFB0746FEF77EFB9D
:10A4F000864228D93846FEF77BFB864223D8384669
:10A50000FEF778FB249B8146002503F1020AA9454A
:10A510001CDD29463846FEF76FFB8346FEF7E0F95F
:10A5200086420ED1224614F8011C07A8FDF766FAF0
:10A530005846059B524607A9FEF742FA07A8FDF7C1
:10A54000A5F90135E3E70AF1010AC8E7039B1C34CA
:10A55000A342B7D1049B1D2B0DD11AAB1E2203F8C9
:10A560004C2D064A106802680093D2F894400123EB
:10A5700004224146A0471BB0BDE8F08F14F9060045
:10A580002DE9F04F00230446A7B098464FF0FF3561
:10A590001C204FF6FF7600FB0342B2F8B0208A423F
:10A5A00008BF1D46B24203F1010318BF08F10108BC
:10A5B000052BF0D16B1C00F0B5801C236B4303F11D
:10A5C000B4072344E619324693F8B3106846FDF702
:10A5D00015FAB8F1010F53D1544BD3F800804FF066
:10A5E000000942F6030AD8F800304046DB69984774
:10A5F0001FFA89FB58453ED9D8F8003059461B6AE6
:10A6000040469847026892688346904750452FD14C
:10A610009DF804208DF8502026AA454B52F8931D32
:10A62000CDF851109288ADF855209DF80B208DF88B
:10A6300057209DF80C208DF8582013930DF10D0232
:10A640000DF159010DF1490052F804CB41F804CB4A
:10A650008242F9D112880A809DF84B208DF897200C
:10A660005846002213A9FDF7ECFC13A8FDF70EF9DC
:10A6700009F10109B7E70023A4F83E31A4F84431F9
:10A68000D4F8581161B32A4B13939DF804308DF818
:10A69000503026AB0DF1490053F8932DCDF85120E1
:10A6A0009B88ADF855309DF80B308DF857309DF8EC
:10A6B0000C308DF858300DF159020DF10D0353F89F
:10A6C00004CB42F804CB8342F9D11B8813809DF858
:10A6D0004B308DF8973013A8884713A8FDF7D6F8AC
:10A6E0001C2303FB05434FF6FF72C3F8B020002282
:10A6F000E251B280D3F8C400A3F8C8201721A3F810
:10A70000C01083F8CA2083F8CB2010B103685B68BF
:10A7100098471C2303FB05440023C4F8C430684653
:10A72000FDF7B4F827B0BDE8F08F00BFB4F806001D
:10A73000A4F506001F4B70B5044640F8863B03F0B5
:10A740001EF804F1870003F01AF81B4B04F198057A
:10A7500003F11006186859682A4603C20833B34249
:10A760001546F7D141F288331721C4F8AC300023E5
:10A77000A4F8A810A4F83E31C4F84031A4F844313C
:10A7800004F1B40204F5A0704FF6FF7522F8045CE2
:10A7900002F8023C02F8013C13609380918113613E
:10A7A00013751C328242F1D1C4F85431C4F85831C7
:10A7B000204670BD74F7060058F7060010B5002358
:10A7C0001C2101FB030292F8C840A40702D5B2F88D
:10A7D000B00010BD0133052BF3D10620F9E730B5E9
:10A7E00000231C2404FB0302B2F8B0508D4204D0B5
:10A7F0000133052BF6D1002001E092F8C80030BDEE
:10A800002DE9F04F99B002AF044697F880B07A6016
:10A81000BBF1010F0E461D460DD8122B07D1036860
:10A8200004220092D3F8DC402A460023A0475C377C
:10A83000BD46BDE8F08FD7F88430B3F800808B4B6D
:10A84000D3F800A0DAF800305046DB69984708F1E9
:10A85000FF318BB283420CD9122DE8D123680A2232
:10A860000092D3F8DC902A46434631462046C8473A
:10A87000DDE7DAF8003050461B6A984703689B68AA
:10A880008146984742F60303984240F0A680484626
:10A89000FDF7B8FA8045484601D1122D53D1FDF796
:10A8A0002DFA010740F1DB804846FDF72AFA10F047
:10A8B00002000FD031462046FFF791FF030648D42F
:10A8C00023680F220092D3F8DCA0204643461222D0
:10A8D000D047012000234FF01C0C0CFB03F2A11801
:10A8E000B1F8B0E0B6455ED1D7F8843091F8B31036
:10A8F000ABF1020BB4325FFA8BFB03F1020A224484
:10A9000048B3032384F8853084F84610A4F84480C3
:10A910001368C4F847309388A4F84B300A2384F8AE
:10A920004DB084F885305A46514604F14E0041F04E
:10A93000A9F894F88530122D9B4484F885B07FF4F3
:10A9400076AF6D4642E0FDF7D9F942077FF56FAF6C
:10A95000AAE70020BEE707F10C00FDF74FF85B46C1
:10A96000524607F10C014846FDF74BFB07F10C007E
:10A97000FCF78CFF122D7FF45AAF7B6807336D46CE
:10A98000DB08A5EBC3039D46132202AB8DF808201C
:10A99000374A106802680093D2F8944001230422D9
:10A9A0003146A04717E00133052B96D1122D7FF4D5
:10A9B0003EAF7B6807336D46DB08A5EBC3039D46BE
:10A9C000132202AB8DF808200028E1D01323237155
:10A9D000012384F88430AD4629E7D9F80030484691
:10A9E0009B689847B0F5245F39D14846FDF776F962
:10A9F000022834D14846FDF76EF9028842F6021368
:10AA00009A422CD1DAF80030A8F102011B6A5046B4
:10AA1000984703689B688146984742F6030398422B
:10AA20001DD100231C2000FB03F2A118B1F8B0C017
:10AA3000B44510D1B432224491F8B31007F10C00A0
:10AA4000FCF7DCFFD7F8843007F10C015A88484640
:10AA5000FDF7F7FA8AE70133052BE4D18AE7122DD7
:10AA60007FF4E5AE23680322FAE600BFB4F80600DF
:10AA700014F906002DE9F04F9DB0984602AFB8F1E9
:10AA80000A0F154604460E4697F89020D7F89430E2
:10AA9000C7F80CD00FD1022A17D003680422009205
:10AAA000D3F8DC4042460023A047D7F80CD06C37DF
:10AAB000BD46BDE8F08F042A07D003680422009247
:10AAC000D3F8DC400C220023EEE7B8F10A0FB3F80C
:10AAD000009014BF5B8800237B618A4BD3F800B0E1
:10AAE000DBF800305846DB69984709F1FF318BB23B
:10AAF000834207D923680A220092D3F8DC504246E9
:10AB00004B4625E005F1FF3A0735ED086B46A3EB10
:10AB1000C5039D46B8F10A0F6A4614BF0D230B23E7
:10AB200002F8083FDBF800303A611B6A5846984744
:10AB300003689B6805469847B0F5205F2AD17B697A
:10AB400053B1236804220092D3F8DC500B224B4609
:10AB500031462046A847A8E72846FDF7BFF88046BB
:10AB60002846FDF7B8F8424601460DF1090040F0CD
:10AB700089FF08F101081FFA88F8634B3A691868E1
:10AB800003680092D3F8944004225FFA88F33146B8
:10AB9000A0478AE742F60303984240F08F80284698
:10ABA000FDF72EF948451DD17B6913B123680B22AF
:10ABB000A2E72846FDF7A2F83B6958702846FDF742
:10ABC00021F93B6958802846FDF788F880462846D9
:10ABD000FDF781F84246014603A840F053FF08F113
:10ABE0000408C8E72846FDF789F8820702D42368DD
:10ABF000022281E72846FDF784F810F0020B10D0FE
:10AC000031462046FFF7EBFD030614D423680F22DC
:10AC10000092D3F8DCB042464B462046D8474FF06E
:10AC2000010B2846FDF774F87A6983B29A4205D37E
:10AC30002368072260E74FF0000BF2E77B6980B2E0
:10AC4000C01A8245A8BF82461FFA8AF3BB6004F58A
:10AC5000A07304F1B4097B604FF001081FFA8AFA6F
:10AC600039F8043CB34218D14A4619F8011C07F1DF
:10AC70001C00FCF7C3FECDF800A03B697A69434491
:10AC800007F11C012846FDF79DF907F11C00FCF7B0
:10AC9000FDFDBB6898441FFA88F87B6809F11C0920
:10ACA0009945DDD1BBF1000F3FF467AF42463969EA
:10ACB000201D40F0E7FE84F88480F6E6B0F5245FBE
:10ACC0001DD12846FDF70CFA7A6983B29A42AFD2B9
:10ACD0007B6980B2A0EB0308C2452846A8BFC246E4
:10ACE000FDF700FA7B691FFA8AF2C1180AF1010A1E
:10ACF0000DF1090040F0C6FE1FFA8AF83DE74FF05B
:10AD000001083AE7B4F8060014F9060010B5054C3E
:10AD10002046FFF70FFD2046034A0449BDE81040D6
:10AD20003AF097B82070002000600020C99002001F
:10AD300073B5002504460E4640F8041B1022294630
:10AD4000ADF804508DF8065040F09AFF2575304656
:10AD500041F0B6FB451E002D237D19DB0F2B1ED8BD
:10AD6000735D2D2B02D10135023DF4E772190021EC
:10AD700012F8012C8DF8042001A810228DF805305E
:10AD800041F0CCFC237DE218013310712375EBE711
:10AD9000022B04D802232046237502B070BD102375
:10ADA000F9E70068704704307047007D7047000085
:10ADB0002DE9F047144C80464D1E4FF4AA594FF030
:10ADC0002D0A6A1C1AD018F805701022214638097D
:10ADD00002F08FFD1022611C07F00F0002F089FDC8
:10ADE0000C2D04F1020606DC29FA05F3DB0744BF4B
:10ADF000E61C84F802A0013D3446E2E700232370FC
:10AE00000148BDE8F08700BF7C71002000797047E1
:10AE10002DE9F04F89B090460DF1180B027A9DF89C
:10AE200048601F460023054689460693ABF8043068
:10AE3000FAB99E4214BF4FF0020A4FF0030A2B6882
:10AE400028461B699847194BEA881C68002107208F
:10AE500023680091CDE90301CDE9011B2046D3F819
:10AE60003CB011465346D84728B1002009B0BDE890
:10AE7000F08F9A46E3E723684A461B6C414620461A
:10AE800098470028F1D123683A465B6C314620464A
:10AE900098470028E9D1236801219B6C20469847F8
:10AEA0000028E2D101202871E0E700BF14F9060074
:10AEB000034B00210171186803689B6C184700BFA1
:10AEC00014F906002DE9F341124B1D682B6801228D
:10AED0001B6D07460E4628460021002498472B6824
:10AEE000CDE90044D3F84C8010231A4601212846AE
:10AEF000C04768B9012179712B6886EA01021B6D90
:10AF000028469847B0FA80F0400902B0BDE8F081C9
:10AF10002046FAE714F90600C180704701727047B5
:10AF2000022908BFC260704770B50B4D04461C3043
:10AF3000164604F07BF9294604F1280004F08FF945
:10AF4000294604F1340004F08AF92368314620468A
:10AF50005B69BDE870401847D43807002DE9F0411F
:10AF60000C4D04460F461C302946164604F077F96E
:10AF7000394604F1280004F059F9294604F1340057
:10AF800004F06DF92368314620465B69BDE8F04165
:10AF9000184700BFD43807002DE9F0410C4D044696
:10AFA0000F461C302946164604F059F9294604F18B
:10AFB000280004F054F9394604F1340004F036F95D
:10AFC0002368314620465B69BDE8F041184700BF61
:10AFD000D43807007FB5C36B04460D468BB10B68B0
:10AFE00001A89B69984701A904F1340004F08FF986
:10AFF000064601A804F0B0F81EB90024204604B0AB
:10B0000070BD636A73B1294601A8FCF70BFD01A965
:10B0100004F11C0004F06EF9064601A804F09CF847
:10B02000002EEAD0236B6BB1294601A8FCF774FD12
:10B0300001A904F1280004F06AF9044601A804F00B
:10B040008BF8DBE70124D9E738B5A0220E4D0F4B72
:10B050000360C2800023012204460371437102721F
:10B06000C0E90333C0E9053329461C3004F0BFF8BA
:10B07000294604F1280004F0BAF8294604F1340006
:10B0800004F0B5F8204638BDD438070074F806003F
:10B0900003688B4208D9436800228A4202D05B6869
:10B0A0000132FAE7186870470020704770B504460F
:10B0B000406800252368AB4206D9466808213AF06B
:10B0C000EFF801353046F5E70023C4E90033A3600B
:10B0D00070BD000010B50A4B044640F8343B04F044
:10B0E0003BF804F1280004F037F804F11C0004F0E8
:10B0F00033F804F11000FFF7D9FF204610BD00BF60
:10B1000074F8060010B50446FFF7E4FF204640211E
:10B110003AF0C6F8204610BD70B50E4B05461868CB
:10B12000036800221B6D11460024984705F11006A4
:10B130006C712B699C4209D221463046FFF7A8FF6B
:10B1400010B103685B6898470134F2E73046FFF7B7
:10B15000ADFF70BD14F9060003688B4270B504465C
:10B160001AD90022406813468A42456803D0034634
:10B1700001322846F8E7066863B96560A268824232
:10B1800008BFA36008213AF08BF82368013B2360D5
:10B19000304670BD5D60F1E70026F9E72DE9F0412A
:10B1A000074694B00D46002401F110082B699C421B
:10B1B0002AD221464046FFF76BFF0646FCF7E9FC22
:10B1C00000B3314601A8FCF731FE21464046FFF7A7
:10B1D000C3FF1EB1336830465B6898472B6801A9EE
:10B1E000DB6B2846984750B101A93846FCF71EFE94
:10B1F00001A8FCF74BFB384614B0BDE8F08101A86C
:10B20000FCF744FB0134D1E73846FCF7E7FBF2E7F3
:10B210002DE9F04FC568ABB004460F4692469B46F9
:10B220009DF8D0809DF9D8902DB3032922D11A46DC
:10B23000514604A8FCF7E2FBCDF80090359B42464E
:10B24000394604A8FCF77FFC236804A9DB6B204681
:10B25000984748B104A917A8E468FCF7E7FD17A8C8
:10B26000A04717A8FCF712FB04A8FCF70FFB2BB0B4
:10B27000BDE8F08F002504F110032269AA420DD920
:10B28000184629460393FFF703FF5A4651460646E0
:10B29000FCF749FC039B002838D0BEB92369042B76
:10B2A000E5D84C2039F0E4FF5A4651460646FCF7F3
:10B2B000A5FB082039F0DCFF0023C0E900636369C7
:10B2C00033BB60612569A0616B1C2361042F22D010
:10B2D000CDF80090359B424639463046FCF733FCAA
:10B2E0003046FCF756FC0028C1D0E368002BBED0E6
:10B2F000314604A8FCF79AFD294604F11000FFF737
:10B300002BFF336830465B6898479DE70135B4E70B
:10B31000A3695860D6E74B46359A41463046FCF75C
:10B3200023FCDDE770B446799DF80C409DF914507C
:10B3300026B10595039470BCFFF76ABF70BC7047D7
:10B3400010B5054C2046FFF77FFE2046034A04490E
:10B35000BDE8104039F07DBDA471002000600020E0
:10B36000D5B00200406870474368994208D28368AC
:10B370000022914202D05B680132FAE718687047F8
:10B380000020704773B50446302039F071FF324910
:10B390000546FDF761F92561542039F069FF002564
:10B3A0000646142302222D490095FCF779FD6661BB
:10B3B000542039F05DFF02231A46064628490095BD
:10B3C000FCF76EFDA661302039F052FF2549064694
:10B3D000FDF742F9E661542039F04AFF20220423A8
:10B3E000214900950646FCF75BFD26622069FCF7C3
:10B3F00078FC6069FCF775FCA069FCF772FCE069F9
:10B40000FCF76FFC206AFCF76CFCD4E90401FDF743
:10B410004AF9A1692069FDF746F9D4E90701FDF76A
:10B4200042F9236811491B69204698472368294639
:10B4300020465B69984723682046DB6A9847236863
:10B4400021699B6A204698472368E1699B6A2046E8
:10B4500002B0BDE870401847B8F80600BDF8060015
:10B46000C2F80600C7F80600CCF80600D1F80600BE
:10B4700010B504460069FCF739FC20B9206910B109
:10B4800003685B6898476069FCF730FC20B9606925
:10B4900010B103685B689847A069FCF727FC20B9E6
:10B4A000A06910B103685B689847E069FCF71EFC6F
:10B4B00020B9E06910B103685B689847206AFCF71F
:10B4C00015FC20B9206A10B103685B6898472368AF
:10B4D0002046DB6ABDE8104018474069FCF77ABC9B
:10B4E00007B502AB022223F8021D80691946FCF75A
:10B4F00011FC03B05DF804FB10B504460846FCF7E8
:10B50000A8FB014628B1236820469B6ABDE810408D
:10B51000184710BD2DE9F0410025074688462C4606
:10B520003B683846DB699847A84211D93B682946F1
:10B530001B6A3846984703689B6806469847B0F5EB
:10B54000205F02D0464503D0264601353446E7E762
:10B5500020463CB1FCF7C2FB0228204604D1FCF790
:10B56000BAFB0088BDE8F081FCF7B5FB4089F9E73C
:10B57000054A02600022C0E90122C0E90322C0E9B5
:10B580000522C0E907227047E4F8060038B50446F2
:10B5900008200D4639F06CFE0023C0E900536368B3
:10B5A0002BB960602368A0600133236038BDA368B5
:10B5B0005860F7E72DE9F84F04460D46084604F1B8
:10B5C0000408FCF78EFB29464046FFF7DFFF23689F
:10B5D0002046DB69984700271FFA80FB2846FDF7C5
:10B5E00052F8B84235D939462846FDF74EF8064696
:10B5F000FCF777FB31464046FFF7C8FF236820463B
:10B60000DB69984781B23046FCF7F8FB314640468B
:10B61000FFF7BCFF4FF000093046FCF7F7FB484549
:10B6200015D949463046FCF7F3FB8246FCF759FB37
:10B6300051464046FFF7AAFF23682046DB6998473A
:10B6400081B25046FCF750FD09F10109E4E70137EA
:10B65000C4E723682046DB699847594682B22846EA
:10B66000BDE8F84FFDF708B870B5044640680025FE
:10B670002368AB4206D94668082139F011FE01352E
:10B680003046F5E70023C4E90033A36070BD000035
:10B6900038B50446054B44F8043B0546FFF7E8FE81
:10B6A0002046FFF7E1FF284638BD00BFE4F806005A
:10B6B00010B50446FFF7ECFF2046242139F0F0FDD9
:10B6C000204610BD70B50446002523682046DB697E
:10B6D0009847A8420FD9236829461B6A20469847F5
:10B6E0000646FCF703FB20B91EB1336830465B68A1
:10B6F00098470135E9E7201DFFF7B6FF70BD000050
:10B7000008B5054B1846FFF733FF044A04491846AD
:10B71000BDE8084039F09DBBE471002000600020C6
:10B7200091B60200704700000023C0F80831024BB8
:10B73000186803681B681847D8FA0600024B186897
:10B7400003685B68184700BFD8FA06000368002149
:10B750005B69184710B40368D3F8A4400023A446DB
:10B760001A4640F603415DF8044B604737B502685E
:10B7700002ABD2F8A45023F8021D022241F2054187
:10B780000446A84750B9D4F81832BDF806201988E5
:10B79000914203D193F9020003B030BD7F20FBE753
:10B7A00013B502A961E9022303680822D3F8A44073
:10B7B0000B4640F60141A04702B010BD13B502A9E7
:10B7C00061E9022303680822D3F8A4400B4642F241
:10B7D0000101A04702B010BD10B40368D3F8A44023
:10B7E00006220B46A44642F205015DF8044B604771
:10B7F0001FB5089C8DF804309DF818308DF8053081
:10B800009DF81C308DF806302368CDF80730A388EA
:10B81000ADF80B309DF824308DF80D309DF82830B0
:10B820008DF80E300368ADF80010ADF80220D3F8A3
:10B83000A4400F226B4642F20601A04704B010BD9F
:10B8400013B502AB026803F8011DD2F8A44042F21E
:10B850000A010122A04702B010BD13B5ADF80330B4
:10B860009DF810308DF805309DF814308DF80630B5
:10B8700003688DF80010ADF80120D3F8A44007222A
:10B880006B4642F20B01A04702B010BD13B503682E
:10B890008DF804108DF80520D3F8A440022201ABE6
:10B8A00042F20C01A04702B010BD10B588B00B9C4D
:10B8B0008DF808309DF828308DF809302368CDF8D0
:10B8C0000A30A388ADF80E309DF830308DF8103076
:10B8D000BDF83430ADF81130BDF83830ADF8133064
:10B8E000BDF83C30ADF81530BDF84030ADF817303C
:10B8F000BDF84430ADF81930BDF84830ADF81B3014
:10B900000368ADF80410ADF80620D3F8A44019225E
:10B9100001AB42F20D01A04708B010BD10B403689E
:10B92000D3F8A4400023A4461A4642F20E015DF863
:10B93000044B60471FB5ADF80430BDF81830ADF8C2
:10B940000630BDF81C30ADF808300423ADF80A30DD
:10B950000623ADF80C300368ADF80010ADF80220F6
:10B96000D3F8A4400E226B4642F21301A04704B064
:10B9700010BD10B4D0F8EC402CB119461046234647
:10B980005DF8044B18475DF8044B704707B5036832
:10B990000122D3F888306946984703B05DF804FB6C
:10B9A00013B5002300930139CDF80330052311F8B6
:10B9B000014F0DF8034013F1FF33F8D203688DF8FF
:10B9C0000620D3F8A44007226B4640F60D41A0475D
:10B9D00002B010BD13B513238DF80630026802AB18
:10B9E000D2F8A44023F8041D032240F20641A047E8
:10B9F00002B010BDC0F8041170470023C0F8043134
:10BA000070473AB190F81D32934203DD9B1A80F8DB
:10BA10001D3270470023FAE710B4D0F8F8300C4616
:10BA200023B1204611465DF8044B184718465DF8CF
:10BA3000044B704710B4D0F8EC300C4623B12046CC
:10BA400011465DF8044B184718465DF8044B7047E3
:10BA500010B4D0F8F4300C4623B1204611465DF8FE
:10BA6000044B184718465DF8044B7047D0F8FC307B
:10BA70002BB1D0F80001003018BF0120704703201F
:10BA8000704710B54FF44871044639F009FC204660
:10BA900010BD00002DE9F843424B04461D6819B162
:10BAA0002B6828469B6898473F4E404FDFF800813F
:10BAB0002B682846DB689847002870D02B682846FA
:10BAC0005B699847D4F80831B3F5817F5FFA80F954
:10BAD00008D3D4F804010023C4F8083110B131466A
:10BAE00003F0CEFAD4F808315A1C2344C4F80821D4
:10BAF00083F80C9194F80C31022B25D1052AD7DD5F
:10BB000094F8101194F80F3103EB012304339A4297
:10BB1000CEDDD4F8043143B12368D2B2D3F8C0905B
:10BB2000414604F586732046C8470023D4F808111F
:10BB3000C4F808312368D3F8B430013904F20D1287
:10BB4000C9B220469847B3E7042B1CD1032AAFDDC6
:10BB500094F80E3102339A42AADDD4F8043143B18D
:10BB60002368D2B2D3F8C090394604F586732046D4
:10BB7000C8470023D4F80811C4F8083123680139F4
:10BB8000D3F8BC30DAE7D4F804010023C4F8083154
:10BB900000288DD01022494603F0D4FA88E7BDE88A
:10BBA000F88300BFD8FA0600C6F90600EEF90600D1
:10BBB000DBF90600F0B5154616885288AB88111FD0
:10BBC000994287B004464FEA163609D0012E00F29A
:10BBD0001E271DD000F20D11043238463FF052FFEF
:10BBE0006A88AB88043A9A422DD1E888298883B2C2
:10BBF000042BC1F30B011CD1244B186803681D6A88
:10BC0000012ED2B20CBF04F2262304F2151319E060
:10BC1000B0F8200200F2222004F2111120443FF07B
:10BC200031FF6A88B4F820321344A4F820323D462C
:10BC3000D6E7052B09D1164B18680368D2B2DD6828
:10BC400004F21513A84707B0F0BD062B04D1104B22
:10BC5000186803681D69D3E700220392ADF8142029
:10BC600001228DF80C200622ADF80E20022203AB33
:10BC7000ADF8102022680093ADF81200D2F894506D
:10BC80000A2305222046A847DDE700BF68F7060023
:10BC900078FB0600F0B5202589B004460E4617460D
:10BCA00000212A4668463FF0EBFF324639460DF147
:10BCB00001008DF800603FF0E5FE23682A46D3F8C6
:10BCC000A46042F208016B462046B04709B0F0BDBF
:10BCD000F0B5202589B004460E46174600212A46B5
:10BCE00068463FF0CDFF324639460DF101008DF830
:10BCF00000603FF0C7FE23682A46D3F8A46042F2F2
:10BD000009016B462046B04709B0F0BD2DE9F0416E
:10BD10001E468AB003680AAD88469B6F17460446E4
:10BD2000984705F8288D7A1E062312F8011F5955E9
:10BD3000013BFAD1109A0DF11703711E013A0F362B
:10BD40001F4611F8010F03F8010DB14212F8010F5F
:10BD50001874F6D11A491B4803F070F901222946DC
:10BD6000194801F0B3FA1949164803F067F9062299
:10BD70000DF10101144801F0A9FA1549114803F029
:10BD80005DF910220DF107010F4801F09FFA1149EA
:10BD90000C4803F053F9394610220B4801F096FA8B
:10BDA00023682722D3F8A46042F227012B462046BD
:10BDB000B04723682046DB6F98470AB0BDE8F081A2
:10BDC00052F90600A0770020647600205FF9060093
:10BDD0006CF9060079F906002DE9F047044600AF3A
:10BDE0008A4691461D4694F81D2294F81C329A42C8
:10BDF00004D3236820461B699847F4E705F1100334
:10BE000003F4FC73ADEB030D02238DF800302B1D02
:10BE1000DBB22A46396AADF803300DF10900ADF8FE
:10BE200001A0ADF80550ADF807903FF02BFED4F817
:10BE3000043105F10906E8463BB123680B49D3F804
:10BE4000C050F2B26B462046A84794F81D32013329
:10BE500084F81D32064B1868036832469B694146D8
:10BE600098470020BD46BDE8F08700BF18F90600DE
:10BE7000D8FA06002DE9F0430D46114683B00B3188
:10BE800001F4FC7100AF0446ADEB010D01203871E7
:10BE9000A7F80550FA716846796840F8041B1946FE
:10BEA000161D3FF0EFFDD4F80431E8463BB123689E
:10BEB0001649D3F8C090F2B26B462046C847144BDF
:10BEC0001868036832469B69414698474FF6FF73EE
:10BED000A4F80E324FF0FF33C4F8103203F05AFAD0
:10BEE00000F57A76B4F80E32AB4208D003F052FA7D
:10BEF000B04204D2236820461B699847F2E7D4F881
:10BF000010020C37BD46BDE8F08300BF2BF90600D8
:10BF1000D8FA060007B502AB002203F8012D42F261
:10BF20002D0101220248FFF7A5FF03B05DF804FBD5
:10BF30000872002007B502AB012203F8012D42F27E
:10BF40002D010348FFF796FF03B05DF804FB00BF27
:10BF5000087200207FB501238DF800300B68CDF802
:10BF600001308B88ADF805300DF11701531E0F32EB
:10BF700013F8010F01F8010D9342F9D16B46172216
:10BF800040F611410248FFF775FF07B05DF804FB6A
:10BF90000872002013B50446684601F06DF9D4F824
:10BFA000EC3063B1D4F8F4304BB1D4F8F83033B19D
:10BFB000D4F8F0301BB10121684601F060F9684601
:10BFC000012101F06EF96846012101F061F968462E
:10BFD000012101F06FF92D2101A801F04EF99DF822
:10BFE000040002B010BD2DE9F0411D460368D3F8EE
:10BFF000A48000230F46164641F201011A4604466A
:10C00000C04770B9D4F818321A783A70B3F80120E2
:10C010003280DA782A70069A99881180DA88079B2C
:10C020001A80BDE8F08113B5036869461B6A0446AF
:10C03000984750B9D4F81832D9345A1E053312F83B
:10C04000011F04F801199A42F9D102B010BD000095
:10C05000F8B50368D3F8A45000230E46174642F201
:10C0600002011A460446A847054678B9D4F81832A2
:10C070001A8832809B783B7084F81C32044B3188DC
:10C080001868036809399B6889B298472846F8BD43
:10C0900068F70600F0B589B06F460E4614460021D9
:10C0A0002022054638463FF0EBFD711E04AB621EB0
:10C0B00011F8010F03F8010D12F8010F1874BB42BB
:10C0C000F6D12A6842F21701D2F8A440284620226D
:10C0D000A04750B90E9B1033D5F81822125C03F814
:10C0E000012D01301028F7D1012009B0F0BD70B545
:10C0F0000368D3F8A46000230C461A4641F20901F4
:10C100000546B04728B9D5F818321A6822609B88CE
:10C11000A38070BD70B50368D3F8A46000230C46FB
:10C120001A4642F218010546B04728B9D5F8182238
:10C13000136823605368636070BD00002DE9F0410F
:10C140001678052EB2B00546144617D1B34B527976
:10C150001868B4F8031003685B6A9847B04BB4F8EA
:10C160000310186862790368C9B25B6998470121B6
:10C17000AC48FFF765FB32B0BDE8F081082E64D112
:10C18000A64BB2F8031052791D68002A58D02846F1
:10C19000FEF725FBC10734D505F18708404601F0BD
:10C1A000F3FA404601F0F4FA28B332AF05F19802F1
:10C1B00007F8446D102312F8011BD955013BFAD141
:10C1C000B4F803109748009711230622FFF704FEE6
:10C1D0000923954AADF884300623F91812F8010FA7
:10C1E0004870013BF9D1B4F803108E48009708233A
:10C1F0000622FFF7F1FD404601F0CEFA404601F07D
:10C20000CFFA2B68B4F803109B6E8022284698471B
:10C2100095F8853023B12B682846D3F880309847AD
:10C2200095F88430002BA6D02A1DB4F803107D4861
:10C2300000920422FFF7D0FD002385F884309AE7AE
:10C240002B6828469B6E984795E70E2E0ED1B2F8C4
:10C250000330A0F80E325379C0F810325378063408
:10C26000043B80F81432C0F8184284E70F2E09D13D
:10C270009388A0F80E329378C0F81032002380F82B
:10C28000143278E7132E12D193780734D61C04EBBE
:10C2900083040436A6423FF46EAF2B6836F8022CB6
:10C2A000D3F8B83036F8041C28469847F1E7152E25
:10C2B0003FF461AF3E2E7FF45EAF9378013B092BD4
:10C2C0003FF659AF01A252F823F000BF4BC3020062
:10C2D00095C3020077C1020077C10200C1C302000A
:10C2E00073C4020077C102009FC40200BBC50200F4
:10C2F000F5C20200E378002B7FF43DAF474B94F882
:10C3000020701868A279E379A18806680497E78B02
:10C310000397A78B0297678B04F10805CDE90057B7
:10C32000F669B0473E4B94F820701868A279E3791B
:10C33000A18806680497E78B0397A78B0297648B05
:10C34000CDE90054B468A04715E7E378002B7FF4EB
:10C3500012AF324B277D1868A279E379A18806686D
:10C360000497678A0397278A0297E78904F10805EB
:10C37000CDE90057F669B047294B277D1868A279A7
:10C38000E379A18806680497678A0397278A02974A
:10C39000E489D5E7E378012B7FF4EDAE237B234AD4
:10C3A0002179106862790568E61896F90D600296A1
:10C3B00004F10D06CDE90036A31DAD6BA847DAE602
:10C3C000164BB4F803101E68336810AA1B6F304672
:10C3D0009847B4F803103046FEF701FAC20729D592
:10C3E000102200210DF186003FF04AFC2379E2780B
:10C3F0000F4942EA032232AB23F8442D1022981849
:10C4000011F8014F4470013AF9D12A6842F21A0139
:10C41000D2F8A44012222846A047ACE668F70600EE
:10C4200078FB060008720020DB72002068F8060026
:10C43000E17200203368B4F80310DB6F0BAA3046BA
:10C4400098472B68744AD3F8A83078B10BA92846CE
:10C450009847C0B20028C3D12B680222D3F8A46049
:10C4600042F21B01E31C2846B04784E60DF141016E
:10C47000EDE754F8030F6168228921AB03C31A80EA
:10C480000F23ADF88E3040F6FF73ADF890302B6877
:10C490000E22D3F8A44042F2200121ABBBE7E3789F
:10C4A000002B7FF468AE0C238DF840300DF1410273
:10C4B000231D04F1440153F8040B42F8040B8B4292
:10C4C000F9D1231D05F14402443453F8041B42F80A
:10C4D000041BA342F9D1514B1C682046FEF76EF9AC
:10C4E000052806463FF647AE0DF1400841230622D7
:10C4F0000146CDF800804A48FFF76EFC31462046E1
:10C50000FEF76DF9236840F004029B6ED2B231460B
:10C51000204605F1A407984739464148FFF7FAFD40
:10C5200005F1AC013E48FFF7F5FD4122002121A8AD
:10C530003FF0A6FB3A4829AA012318F8031002F895
:10C54000011DC1180133C97882F82010212BF4D1C4
:10C550000BAD1122002128463FF092FB0DF12D0476
:10C5600003238DF82C3021AA4123009439462D480D
:10C5700000F0B0FF002307AA591C112904D0D31AD8
:10C58000685CD8730B46F7E72346144603CCAC42ED
:10C5900018605960224603F10803F6D13146009530
:10C5A000112306221E48FFF717FC1F4B402242F2C0
:10C5B0002601181FFFF75EFCDDE5E378002B7FF412
:10C5C000DAAD164B1F683846FEF7F8F80528064620
:10C5D0003FF6D1ADE31CD335233413F8012F05F812
:10C5E00001299C42F9D131463846FEF7F8F83B68FC
:10C5F00040F0080204469B6ED2B231463846984756
:10C60000E3067FF5B8AD094B094A1868036831465F
:10C610009B6A9847AFE500BFE272002068F706000A
:10C6200008720020647600200C72002078FB06005F
:10C630008C72002037B502AB044603F8081D013A9E
:10C64000062112F8010FC8540139FAD1226842F2CA
:10C650002B01D2F8A45020460722A84711490546CD
:10C66000114802F0EBFC102229460F4802F051FD60
:10C67000A5B9D4F818420D490B4802F0DFFC10228E
:10C6800014F8011B084802F05DFD0949064802F054
:10C69000D5FC06222146074800F018FE284603B0C4
:10C6A00030BD00BF86F90600A07700208EF9060095
:10C6B000ACF90600647600202DE9F74F3D4DD5F822
:10C6C000F00088469346002870D002AC0023042076
:10C6D00004F8053D38F0CCFD8146042038F0C8FD53
:10C6E0000746042038F0C4FDD5F8F050064603464E
:10C6F0003A4649462046A84718B92F492F4802F024
:10C70000BFFC00252C469DF80330AB4234DD4FEAD8
:10C71000850A1CBB31682A4851F8251001AB4246F6
:10C7200000F056FE98F803209DF804309A4215D187
:10C730009DF8052098F804309A420FD19DF8062004
:10C7400098F805309A4209D13B6853F80A301A68C4
:10C75000CBF800209B88ABF8043001243B6853F8E9
:10C760000A0008B138F09EFD336853F80A0008B19A
:10C7700038F098FD0135C6E7D9F8000008B138F067
:10C7800091FD4846042138F08BFD386808B138F037
:10C7900089FD3846042138F083FD306808B138F04F
:10C7A00081FD3046042138F07BFD204603B0BDE812
:10C7B000F08F00BF087200203EF90600A07700202D
:10C7C000647600202DE9F0410546D0F804011646B4
:10C7D0001C4600B302F032FC013CDFF840802644E6
:10C7E000A642D5F804010DD014F8017F0F2F02D80E
:10C7F000414602F023FC10223946D5F8040102F02C
:10C800009FFCEDE702F022FCD5F804010368BDE8C7
:10C81000F041DB681847BDE8F08100BF43FB06002C
:10C82000084A02600022C0E93B22C0E93D22C0F86C
:10C83000FC20C0F80021C0F80421C0F8082180F8CD
:10C840001D22704708FA060008B5054B1846FFF789
:10C85000E7FF044A04491846BDE8084038F0F9BA31
:10C86000087200200060002025B702007047704762
:10C87000D0F810017047D0F8103123B1D0F80C3146
:10C880001844007A70474FF0FF307047D0F81031ED
:10C8900083B1D0F80C3103441A7AD0F80C3101334B
:10C8A000DBB2C0F80C31D0F81031013BC0F81031C8
:10C8B000104670474FF0FF3070470368184710B5B7
:10C8C0004FF48A71044638F0EBFC204610BD2DE988
:10C8D000F04F89B002A835F0E4FA02A835F05CFA0E
:10C8E000002400254FF47A76002740F2E7384FF015
:10C8F000000902A835F09DFA24184D4102A835F030
:10C90000A2FA4FF47A720023204629463DF05EFDDC
:10C9100050B12CF08FFA204629464FF47A7200234A
:10C920003DF054FD14461D4630F0F6F901A837F0ED
:10C93000FBF930F0E7F9824601A837F0FDF902A8CB
:10C9400035F077FABAF1000FD3D0894508BF80459A
:10C95000CFD3B6EB000A67EB010BBBF1000F08BFAA
:10C96000BAF57A7F03D1012038F0F6FEC1E75AEA22
:10C970000B03BED0504638F0C9FDBAE70B68036020
:10C980004B6843608B6883607047000038B50A4C81
:10C990000546206840B138F0B7FF206810B1036841
:10C9A0005B6898470023236033F07CFA2CF0BEFBD1
:10C9B00000232B7138BD00BF5076002010B50368EE
:10C9C000DB680C46984738B90123224619460348CC
:10C9D000BDE8104038F0ECBD10BD00BF3C76002033
:10C9E000F8B50079C0B1013AD4B20D46102C2046FA
:10C9F000B8BF102015F8016B2CF0F2F8294622463A
:10CA000007463FF03FF833F04DFA4069036822468D
:10CA10001D6931463B46A847F8BD000038B5114BAB
:10CA20001A78EAB90122104D1A70104C03682B6075
:10CA300081684368007B23602CF01AF883B223B925
:10CA400063220B490B4837F01BFE2B6880B203446E
:10CA50002B602368181A2060BDE838402CF0C4B958
:10CA600038BD00BF54760020F0430120EC43012084
:10CA7000DCFA060035FB0600F0B500238BB0C0F8E9
:10CA80000831C0F80C31C0F81031064633F00AFA0C
:10CA90000368204F9B68014602A8984702A8FFF749
:10CAA000BDFF33F0FFF92CF035FB3D6845BBBC20E2
:10CAB00038F0DEFB184B0360044629460561403020
:10CAC00038F00AFE04F1540038F0A4FD2B464FF470
:10CAD000805218212046009538F09AFE3C600F4B9A
